:10000000000003205F080000D5080000D9080000A8
:10001000D5080000D5080000D50800000000000049
:10002000000000000000000000000000D5080000F3
:10003000D508000000000000D5080000D508000029
:10004000D5080000D5080000D5080000D50800003C
:10005000D5080000D5080000D5080000D50800002C
:10006000D5080000D5080000D5080000D50800001C
:10007000D5080000D5080000D5080000D50800000C
:10008000D5080000D5080000D5080000D5080000FC
:10009000D5080000D5080000D5080000D5080000EC
:1000A000D5080000D5080000D5080000D5080000DC
:1000B000D5080000D5080000D5080000D5080000CC
:1000C000D5080000D5080000D5080000D5080000BC
:1000D000D5080000D5080000D5080000D5080000AC
:1000E000D5080000D5080000000000000000000056
:1000F00000000000D5080000D5080000D508000069
:10010000D5080000D5080000D5080000D50800007B
:10011000D5080000D5080000D5080000D50800006B
:10012000D5080000D5080000D5080000D50800005B
:10013000D5080000D5080000D5080000D50800004B
:10014000D5080000D5080000D5080000D50800003B
:10015000D5080000D50800000000000000000000E5
:10016000000000000000000000000000000000008F
:10017000000000000000000000000000000000007F
:10018000D5080000D5080000D5080000D5080000FB
:1001900000000000D5080000D5080000D5080000C8
:1001A000D5080000D5080000D5080000D5080000DB
:1001B000D5080000D5080000D5080000D5080000CB
:1001C000D5080000D5080000D5080000D5080000BB
:1001D000D508000000000000000000000000000042
:1001E000000000000000000000000000D508000032
:1001F000D5080000D5080000D50800000000000068
:10020000000000000000000000000000D508000011
:10021000D5080000D5080000D5080000D50800006A
:10022000D5080000D5080000D5080000D50800005A
:10023000D5080000D5080000D5080000D50800004A
:1002400000000000D5080000D5080000D508000017
:10025000D508000000000000D5080000D508000007
:1002600092B000F064F8D0B300F040F8B8B311AC2D
:1002700002AD0094284621462246234600F08DF820
:10028000284600F06DF910AD10904FF4C871284663
:1002900000F070F9052000F0A5F900F069F820469B
:1002A00000F054F94FF400560660204600F053F970
:1002B00048F214070021C4F2001741732846C821F0
:1002C00000F05EF9204600F0A4F92846C8217E60BF
:1002D00000F056F9204600F09CF93E60EEE740F64B
:1002E0003010C0F2000000F011FAFEDE10B582B04E
:1002F00000F0FEF900F001008DF8070000F0F4F9BD
:1003000000F0F9F940F20100C2F20000007808B1F3
:10031000002402E000F0DCF901240DF1070000F0F8
:10032000DEF908B100F0E2F9204602B010BD10B5C8
:1003300082B000F0DDF900F001008DF8070000F058
:10034000D3F900F0D8F940F20000C2F200000078C2
:1003500008B1002402E000F080F901240DF107004B
:1003600000F0BDF908B100F0C1F9204602B010BD9F
:1003700000F037B910B5044600F051F901210170C1
:10038000204600F04CF90078C007F9D1204600F073
:1003900046F940680028F3D110BD80B582B0DDF881
:1003A00010C04FF0000ECDE900CE00F002F802B010
:1003B00080BD2DE9F04381B0044608981E461746DB
:1003C000894600F036F9018821F4706101F58071E9
:1003D0000180484600F028F9416941F080014161FF
:1003E000384600F030F9099940F60418C0F20108C7
:1003F00021B3818A49F66172114042F21E02114313
:100400008182384600F01FF904210174384600F05B
:100410001AF9C068C007F9D06F463846FFF7AAFF3F
:10042000384600F0FCF808F1010141626F46384699
:1004300000F0F5F840680028F8D118E0C16941F0F3
:100440000601C161384600F0FEF800216F460174D4
:100450003846FFF78FFF384600F0E1F8C0F82480F7
:100460006F46384600F0DBF840680028F8D143F6C4
:10047000FC75384600F0D3F8406828400428F8D0CE
:10048000384600F0CCF840F206114FF68075C0F205
:100490001801C0F207054163384600F0C0F8406813
:1004A0002840B0F5805FF7D0384600F0B8F8452115
:1004B000C0F88410304600F0C1F83B21416330465B
:1004C00000F0BCF800218163304600F0B7F802214B
:1004D00080F83010304600F0B1F8006CC007F9D059
:1004E000304600F0ABF8006C8007F3D5384600F0DA
:1004F00096F843F6FC7508F103010162384600F0F6
:100500008EF8406828400428F8D0484600F08CF85F
:10051000012104F10803417140F60060C0F2277028
:1005200048F280424FF4FA41002523C304F1200031
:100530001821C0F21E02C4E90555E26100F08CF9F1
:100540008020C4E9000501B0BDE8F08348F208004E
:10055000C4F20010704748F24000C4F20010704727
:1005600010B582B0044601A8002100F09EF8A068F2
:1005700002B010BD89B24FF47A72514300F006B850
:10058000C9B24FF47A72514300F000B8F0B581B0AF
:10059000044600684DF68362C4F21B32A0FB0202DF
:1005A000900C00FB01F6D6B16FF07F476FF07F45EE
:1005B000BE4238BF35462046294600F083F8204623
:1005C00000F052F8204600F05FF8204600F065F891
:1005D0000028FAD0204600F04EF8761BE6D101B094
:1005E000F0BD7047B0B582B001AC0546204600F0C2
:1005F0002FF845F0B0014170204600F029F80221A3
:100600000170204600F024F880688007F9D402B019
:10061000B0BD80B500F01CF8A521017380BD41F686
:100620000040C4F20000704740F60000C4F2000031
:10063000704744F20000C4F20010704741F200001D
:10064000C4F20000704741F20040C4F2000070475D
:1006500042F20000C4F20000704740F200000121A5
:10066000C2F20000017070474EF218000021CEF275
:100670000000016070474EF21000CEF200000168E9
:1006800021F00101016070474EF21000CEF200002F
:10069000016841F00101016070474EF21000CEF296
:1006A00000000068C0F3004070474EF210000029BF
:1006B000CEF20000026842F0040318BF22F00403E7
:1006C000036070474EF21400CEF2000001607047E4
:1006D00040F201000121C2F2000001707047007871
:1006E000B0FA80F04009704772B6704762B6704742
:1006F000EFF3108070477047704744F2D45043F2D4
:100700009241C0F69A50CDF20D0170478CB0D0E9FD
:1007100000E240F64815D0E902C30024D0E90410F5
:10072000C0F20005CDE90A1008A9059468460495B1
:10073000CDE902440124019406AC0094CDE906E21F
:10074000CDE908C300F001F8FEDE88B0D1E900C3AE
:10075000D1E902210791CDE90532CDE9030C40F63C
:100760004810C0F20000029040F64810C0F20000AD
:10077000019001A800F001F8FEDEFEE710B50029A7
:1007800008BF10BD4B1E01F0030C032B01D200214A
:100790000FE0ACEB010E411C6FF00303CC180433E7
:1007A000A27162712271E2700EEB03040434F5D180
:1007B000191DBCF1000F1CBF4254BCF1010F00D148
:1007C00010BD0844BCF1020F427018BF827010BD0A
:1007D0001346D2B2042938BFFFF7D0BF10B5A1F13C
:1007E000040E42EA0363012443EA024304EB9E043D
:1007F00043EA022314F003040AD08446012C4CF887
:10080000043B0AD174466046BEF10C0F14D21CE0C2
:100810000C46BEF10C0F18D30EE0022C436003D13E
:100820000830A1F1080403E083600C30A1F10C044E
:100830008446BEF10C0F08D3C0E90033103CC0E978
:1008400002331030032CF7D8844601F00301BDE8D1
:1008500010406046FFF792BF0022FFF7B9BF00F0DB
:100860003AF840F2040040F20001C2F20000C2F285
:100870000001814208D240F200010022C2F20001D0
:1008800041F8042B8142FBD340F2000040F200010A
:10089000C2F20000C2F2000181420DD240F65811AE
:1008A00040F20002C0F20001C2F2000251F8043B23
:1008B00042F8043B8242F9D34EF68850CEF2000053
:1008C000016841F47001016000F001F8FEDEFFF7FD
:1008D000C7FCFEDEFEE7704770460421084202D1E5
:0E08E000EFF3088002E0EFF30980FFE7FEE788
:1008F00063616C6C656420604F7074696F6E3A3A26
:10090000756E77726170282960206F6E206120609B
:100910004E6F6E65602076616C75657372632F6CC7
:100920006962636F72652F6F7074696F6E2E727378
:10093000F00800002B0000001B090000150000005B
:100940007A01000015000000F90600000000000018
:0809500001000000FB0600009D
:040000030000085F92
:00000001FF
