:104000000000032081680000F7680000FB680000E2
:10401000F7680000F7680000F76800000000000083
:10402000000000000000000000000000F768000031
:10403000F768000000000000F7680000F768000063
:10404000F7680000F7680000F7680000F7680000F4
:10405000F7680000F7680000F7680000F7680000E4
:10406000F7680000F7680000F7680000F7680000D4
:10407000F7680000F7680000F7680000F7680000C4
:10408000F7680000F7680000F7680000F7680000B4
:10409000F7680000F7680000F7680000F7680000A4
:1040A000F7680000F7680000F7680000F768000094
:1040B000F7680000F7680000F7680000F768000084
:1040C000F7680000F7680000F7680000F768000074
:1040D000F7680000F7680000F7680000F768000064
:1040E000F7680000F7680000000000000000000012
:1040F00000000000F7680000F7680000F7680000A3
:10410000F7680000F7680000F7680000F768000033
:10411000F7680000F7680000F7680000F768000023
:10412000F7680000F7680000F7680000F768000013
:10413000F7680000F7680000F7680000F768000003
:10414000F7680000F7680000F7680000F7680000F3
:10415000F7680000F76800000000000000000000A1
:10416000000000000000000000000000000000004F
:10417000000000000000000000000000000000003F
:10418000F7680000F7680000F7680000F7680000B3
:1041900000000000F7680000F7680000F768000002
:1041A000F7680000F7680000F7680000F768000093
:1041B000F7680000F7680000F7680000F768000083
:1041C000F7680000F7680000F7680000F768000073
:1041D000F768000000000000000000000000000080
:1041E000000000000000000000000000F768000070
:1041F000F7680000F7680000F768000000000000A2
:10420000000000000000000000000000F76800004F
:10421000F7680000F7680000F7680000F768000022
:10422000F7680000F7680000F7680000F768000012
:10423000F7680000F7680000F7680000F768000002
:1042400000000000F7680000F7680000F768000051
:10425000F768000000000000F7680000F768000041
:104260007047704770B50C460846022101F0DEFA2F
:1042700048F22005C4F20015286840070CD4002637
:104280002046012101F0D2FA01362868F1B26329F3
:1042900002D810F00400F3D020460221BDE870409F
:1042A00001F0C4BAF0B503AFADF5854D8FB06C46E3
:1042B0006FF30304A54600F050FE002800F095823D
:1042C00000F06CFE002800F090820DF12C0E0AAC7C
:1042D0000EF58541009120460A460B4600F0C8FEC7
:1042E000204601F05FFA189000F079FE18A86421CA
:1042F00001F062FA204600F094FF8DF86810012169
:1043000019900120009020460422072300F08CFF22
:10431000C8B20C2800F069820DF12C0E0EF5854410
:10432000204601F0B3FAC17A0C2262F31F11C17268
:10433000204601F0A1FAC17D41F00101C17520467E
:1043400001F077FA4FF40058C0F80080204601F0E1
:104350007AFA00264673204601F06BFA4FF40049C2
:10436000C0F80090204601F06EFAC673204601F0B6
:1043700060FA4FF480350560204601F064FA48F297
:10438000140A06740AA819A9C4F2001ACAF804800B
:10439000CAF80490CAF8045000F0A5FF002800F005
:1043A000248248F200701B91C0F2933001F0F2FCBD
:1043B0000546204601F051FAC178032666F31F1125
:1043C000C170204601F03FFAC17941F00101C1718D
:1043D000204601F042FA817801F0F001033181704A
:1043E000204601F030FA017941F0010101712046C7
:1043F00001F033FA817866F31F118170204601F0D5
:1044000022FA41790022002341F0010141711BA8E9
:104410002946009400F035FA204601F00AFA4FF0E0
:104420004008C0F80080204601F00DFA0225857191
:10443000204601F017FA4FF400760660204601F09E
:104440001BFA4572204600F0FBF9204600F008FAFE
:1044500018AD0221CAF880602846CAF8008001F031
:10446000B1F928460421CAF8846001F0ABF91CA810
:104470004FF4705102F001FA0DF1300E0EF5715546
:10448000284600F01CFC0DF1200E0EF5814630464A
:1044900000F015FC05F5007031464FF4007202F093
:1044A0007CF90DF1200E21460EF5814022462B4667
:1044B00001F048F90DF5804E9EF8A000012800F0AB
:1044C000AC810DF17C0E00220EF580480DF1200E1E
:1044D0000EF581440DF17C0E0EF580410DF1300E8C
:1044E000D8F828000EF57153C8F8000020464FF0A8
:1044F000000900F013FF0DF5804E9EF8A000012882
:1045000000F08B81201D0DF581451CC829461CC17A
:1045100090E85C0001205CC146F6B41443F2280226
:10452000C0F20004CDE90090C4F200022846214602
:104530004CF64D33CDE90299CDF8109000F093FF81
:104540002846052100F065FF2846012100F07DFF87
:10455000284600F02BFFC0B2082840F04D810DF531
:104560008145284601F065F80028FAD0284601F078
:1045700070F80028F5D14CF64D3021180DF5814426
:1045800000224CF64D33204600F0F1FF204600F0AB
:104590000DFFC0B2082840F02F810DF58144204660
:1045A00001F047F80028FAD0204601F052F8002820
:1045B000F5D10DF5814446F6B411C0F20001002298
:1045C0002046642300F0D3FF204600F0EFFEC0B287
:1045D000082840F011810DF58144204601F029F8AA
:1045E0000028FAD0204601F034F80028F5D10AA8B6
:1045F00019A900F05DFE002800F0F7800DF11C0EF7
:10460000C8F820100EF581400DF12C0E0EF58544F2
:10461000214601F05CFAC8F824003C2001F0BAFB06
:104620000DF1200E01460EF5814000F0C9F90DF1A3
:1046300060090DF581464FF04008CAF804801CA8B7
:104640004FF47051099000F0CCFA4FF4004000256F
:10465000CAF8080020464946FFF704FE48460121F3
:10466000D346CAF8008001F0E1F8681C08902046A3
:10467000802100F093F9C0B2022802D0C007F6D121
:1046800096E0099930460022F02300F070FF304692
:1046900000F08CFEC0B2082840F09A80304600F04E
:1046A000C8FF0028FAD0304600F0D3FF0028F5D12B
:1046B0004FF0400848460821DA46CBF8048001F064
:1046C000B5F848460121CBF8008001F0AFF8099811
:1046D000F03009902046032100F060F9C0B20228B2
:1046E00004D0C007F6D163E0C00761D02046294658
:1046F00000F054F9C0B20228F6D14846012101F079
:1047000095F840200521CBF80400484601F08EF8CA
:1047100020464946FFF7A6FD089D4FF04008DA46BF
:10472000402D97D14846052101F07DF8CAF8008058
:104730002046042100F032F9C0B2022804D0C0079C
:10474000F6D135E0C00733D02046002100F026F92D
:10475000C0B20228F6D1CAF80080CAF80080CAF8B0
:104760000480CAF800802046002100F017F9C0B28A
:10477000022804D0C007F6D11AE0E80718D0204676
:1047800000F0FCF80D46C007F7D101E0C0070FD0DC
:104790002046002100F002F9C0B20228F6D14846B6
:1047A000012101F043F8A807CAF80480D9D446E7EC
:1047B00046F6681046F6A413C0F20000C0F20003EB
:1047C0000DF12C0E0EF585422B2101F0DFFBFEDEF4
:1047D0000DF5804E46F69413C0F200038EF8AC023D
:1047E00046F66810C0F20000EAE746F65010C0F244
:1047F000000001F074FBFEDE0DF5804E46F69413CA
:10480000C0F200038EF8A00046F668100DF1200EED
:10481000C0F200000EF58142D6E70DF5804E46F657
:104820009413C0F200030DF581429EF8A1000DF52E
:10483000804E8EF8800046F66810C0F20000C3E794
:10484000B0B5044600F0FAFF04250560204600F0EC
:10485000FAFF06218170204600F0FAFF0560B0BD26
:10486000B0B5044601F003F84FF4807505602046AA
:1048700001F002F806210172204601F002F80560FD
:10488000B0BD2DE9F04182B007460898984615461C
:104890000E4601F0A0FA416901AC41F4805141613A
:1048A000204601F0ACFA016841F0010101602046A8
:1048B00001F0A5FAC069C007F9D1204601F09FFABE
:1048C0000068C007F3D101AC204601F098FA0168F6
:1048D000032262F384010160204601F090FAC0696E
:1048E0008007F9D401A801F08AFA416841F4003147
:1048F00021F007014160384600F0D8FC0021B1EBFF
:10490000460F34D0710001AEB0FBF1F4304601F037
:1049100076FA017B611E0173304601F070FA01687E
:10492000002D21F0005218BF41F000524FF6FF71E8
:10493000CAF6CC7102EA010301F18051B8F1000F0F
:1049400018BF42F08053194001F540110160304614
:1049500001F055FA016841F002010160304601F0B2
:104960004EFAC0698007F9D402B0BDE8F08140F288
:10497000AC00C0F2020001F0B2FAFEDE10B504464F
:1049800001F03DFA007E400702D40120012110BD54
:10499000204601F034FA816A002010BDB0B50C4603
:1049A000054601F02CFA007EC00701D10120B0BD00
:1049B000284601F024FAE1B281620220B0BDD4D4CD
:1049C00070B58CB0036801220091012998BF11468F
:1049D000B3FBF1F10023B3EB114F12D00A0C4FF0EF
:1049E000FF33B2FA82F24FF48064D3405A1C3E2B5C
:1049F0003EDC1F2B06D8012648F28B059E402E4236
:104A000061D01446B1FBF4F5B5F5803F019565D250
:104A100001F059F8016821F002010160C17A09072B
:104A2000FCD401210160C17A0907FCD40168C907DF
:104A3000FCD10021A2B241710F2A8583017B01F0D4
:104A4000FC0101F10101017301680BDC013A072A45
:104A50003DD8DFE802F0042E3C303C3C3C2C21F4F5
:104A6000E0612BE0FF2A0CDC102A16D1042223E09F
:104A7000FE2B0BDC3F2BC4D07F2B08BF4FF4807480
:104A8000C0E7B2F5807F0CD1062215E040F2FF3678
:104A9000B34214BFFF2B1446B4E7402A17D10522B6
:104AA0000AE0B2F5806F12D141F4E06106E0032222
:104AB00002E0012200E0022262F30A2141F0020139
:104AC00001600CB070BD1F2B08BF40249AE740F274
:104AD0002010C0F2020001F002FAFEDE46F27B6412
:104AE00001A8C0F20004214601F09AF905460E46DD
:104AF0006846214601F094F9CDE90A0102200790A9
:104B000008A806900020CDE904000320039040F29D
:104B10007010C0F2020040F28811029002A8C0F2A8
:104B20000201CDE9085601F019FAFEDE10B520F0B9
:104B30007F42140C120A130636D04BF68361C3B2BF
:104B4000C2F6A0715FFA82FCA3FB0113D2436FF09F
:104B50002A01D2B26243DB08042B03FB01004FEAB7
:104B6000122E00EB40004FEA4001C9B20CFB01F1EC
:104B700081F47F414FEA112104FB01F14FEA112238
:104B80002AD86FEA4000C0B20CFB00F080F47F40EE
:104B9000000A60434FEA102CDFE803F0030C121701
:104BA0001C007246E64617E04FF6FF71884320442A
:104BB000210214E020467146144686460A460BE060
:104BC000204674468646624606E02046744696466F
:104BD000024601E02246644644EA0E2011040843DE
:104BE00010BD2DE9F04F83B0834640F20000C2F2C1
:104BF00000008A460578691C01700020402101F000
:104C000010F98842029128D2814601204F4601F0D6
:104C100053F919EB000920D20020502101F001F9CD
:104C2000884217D280460E46012001F045F918EB64
:104C300000040FD205EB080060F0FF00FFF776FFDD
:104C400000905846514642463B4600F009F8B442AF
:104C5000A046E9D302988145D7D303B0BDE8F08FD1
:104C600080B58C4603EB830102EB011101EB41019E
:104C7000614519D2029A01F1010EE645425418D25B
:104C800022F07F42023161454FEA122300F80E30D4
:104C90003EBF120C425480BD40F2DC10C0F2020054
:104CA000624601F03BF9FEDE40F2BC10C0F20200A9
:104CB000F6E740F2CC107146C0F20200F0E72DE9B1
:104CC000F04F03AFADF51F7D6C466FF30304A546AF
:104CD00004461CA81B9001F05EF820A81A9001F071
:104CE0005AF824A8199001F056F828A8189001F055
:104CF00052F82CA8179001F04EF830A8169001F049
:104D00004AF834A8159001F046F838A8149001F03C
:104D100042F83CA8139001F03EF840A8129001F030
:104D20003AF844A8119001F036F848A8109001F024
:104D300032F84CA80F9001F02EF850A80E9001F018
:104D40002AF854A80D9001F026F858A80C9001F00C
:104D500022F85CA80B9001F01EF860A80A9001F000
:104D60001AF864A8099001F016F868A8089001F0F4
:104D700012F86CA8079001F00EF870A8069001F0E8
:104D80000AF874A8059001F006F878A8049001F0DC
:104D900002F87CA8039000F0FEFF80A8029000F0CB
:104DA000FAFF84A8019000F0F6FF88A8009000F0B8
:104DB000F2FF0DF50C7A504600F0EDFF0DF5107B7B
:104DC000584600F0E8FF0DF51478404600F0E3FF88
:104DD0000DF51879484600F0DEFF1B9E204696E848
:104DE0002E002EC004F110001A9E96E82E002EC050
:104DF00004F12000199E96E82E002EC004F1300028
:104E0000189E96E82E002EC004F14000179E96E8EA
:104E10002E002EC004F15000169E96E82E002EC0E3
:104E200004F16000159E96E82E002EC004F170007B
:104E3000149E96E82E002EC004F18000139E96E882
:104E40002E002EC004F19000129E96E82E002EC077
:104E500004F1A000119E96E82E002EC004F1B000CF
:104E6000109E96E82E002EC004F1C0000F9E96E81A
:104E70002E002EC004F1D0000E9E96E82E002EC00B
:104E800004F1E0000D9E96E82E002EC004F1F00023
:104E90000C9E96E82E002EC004F580700B9E96E8BE
:104EA0002E002EC004F588700A9E96E82E002EC0B3
:104EB00004F59070099E96E82E002EC004F59870B7
:104EC000089E96E82E002EC004F5A070079E96E876
:104ED0002E002EC004F5A870069E96E82E002EC067
:104EE00004F5B070059E96E82E002EC004F5B8704B
:104EF000049E96E82E002EC004F5C070039E96E82E
:104F00002E002EC004F5C870029E96E82E002EC01A
:104F100004F5D070019E96E82E002EC004F5D870DE
:104F2000009E96E82E002EC004F5E0709AE82E0050
:104F30002EC004F5E8709BE82E002EC004F5F0703A
:104F400098E84E004EC004F5F870A7F10C0499E8FB
:104F50004E004EC0A546BDE8F08F10B582B000F0FF
:104F6000B0FF00F001008DF8070000F0A6FF00F090
:104F7000ABFF40F20100C2F20000007808B100244B
:104F800002E000F046FF01240DF1070000F08FFF62
:104F900008B100F094FF204602B010BD10B582B0F9
:104FA00000F08FFF00F001008DF8070000F085FF92
:104FB00000F08AFF40F20200C2F20000007808B15F
:104FC000002402E000F062FF01240DF1070000F070
:104FD0006EFF08B100F073FF204602B010BD00F074
:104FE00071BD10B5044600F0F1FE012101702046AC
:104FF00000F0ECFE0078C007F9D1204600F0E6FE94
:1050000040680028F3D110BDF0B581B01D461646AA
:105010000F46044600F0DAFE0699FAB200EB820071
:10502000320442EA4121EAB2114401F51061016201
:10503000204600F0CBFE40680028F9D101B0F0BD59
:1050400070B515460E46044600F0C0FEF1B200EB06
:105050008106284600F0A5FB042161F31F10C6F865
:105060008000204600F0B2FE40680028F9D170BDF3
:1050700080B582B0DDF810C04FF0000ECDE900CE53
:1050800000F002F802B080BD2DE9F04381B0044683
:1050900008981E461746894600F0A2FE018821F4B2
:1050A000706101F580710180484600F094FE41690D
:1050B00041F080014161384600F09CFE099940F6BC
:1050C0000418C0F2010821B3818A49F661721140C7
:1050D00042F21E0211438182384600F08BFE042109
:1050E0000174384600F086FEC068C007F9D06F46EC
:1050F0003846FFF776FF384600F068FE08F10101F8
:1051000081626F46384600F061FE40680028F8D1A1
:1051100018E0C16941F00601C161384600F06AFE3D
:1051200000216F4601743846FFF75BFF384600F0F8
:105130004DFEC0F828806F46384600F047FE4068B4
:105140000028F8D143F6FC75384600F03FFE406871
:1051500028400428F8D0384600F038FE40F2061106
:105160004FF68075C0F21801C0F20705416338465A
:1051700000F02CFE40682840B0F5805FF7D038463C
:1051800000F024FE4521C0F88410304600F02DFECA
:105190003B214163304600F028FE00218163304608
:1051A00000F023FE022180F83010304600F01DFE92
:1051B000006CC007F9D0304600F017FE006C800785
:1051C000F3D5384600F002FE43F6FC7508F1030102
:1051D0000162384600F0FAFD406828400428F8D003
:1051E000484600F0F8FD01210025417140F60060BD
:1051F000C0F2277048F28042C4E902054FF4FA4138
:1052000004F12000C4E90415C0F21E021821C4E90B
:10521000065201F032FB8020C4E9000501B0BDE870
:10522000F0838068002170472DE9F04182B0064686
:10523000C8B206EB800555F8080F10B100200C2409
:1052400024E008981F460090304690460C46FFF731
:10525000DBFEF9B24FF4FA40DFE801F01C1C1C053C
:1052600010100C071C00F06808E040F60060C0F267
:10527000277003E046F60040C0F2DC205FEA0841F8
:105280000DD01FFA88F1B0FBF1F12960214602B080
:10529000BDE8F08140F2AC20C0F2020003E040F231
:1052A0004C20C0F2020000F01AFEFEDE00687047DB
:1052B000B0B50446006840F0806020600D7920465B
:1052C0001A212A46FFF7BCFE85F0080040F2C421EF
:1052D00000F00F00C0F2020151F8200004EB800042
:1052E00081680120B0BDB0B50446006840F0800080
:1052F00020600D79204607212A46FFF7A1FE85F0A0
:10530000080040F2C42100F00F00C0F2020151F881
:10531000200004EB800081680120B0BD70B588B02A
:10532000064602208DF81D00082001ADCDF81900B9
:1053300000208DF81820019105930490CDE902001A
:10534000284600F010F8C0B2082807D10ECD301D55
:105350000EC095E81E001EC0002001E07070012004
:10536000307008B070BD70B50646046800F0ACFD42
:10537000317D204600F090FBC5B2082D14D12046A7
:1053800000F01FFD01690123327D02F01F0203FAC4
:1053900002F2914301612046317D737E327E002A04
:1053A00018BF052200F01BFB284670BDB0B50546AE
:1053B000046800F089FD687D052801D10520B0BD95
:1053C000A87DE0B1297D20291BD2286900EB0110BE
:1053D0004088A0B1D5E901200523D5F80CC06B7534
:1053E000002A18BF0122002818BF02322046BCF153
:1053F000000F18BF043200F01BFB0820B0BD0220D4
:10540000B0BD40F25C402022C0F2020000F086FDF8
:10541000FEDEF0B581B00C460546066800F054FD8E
:10542000287E2F7D002818BF05202876304600F002
:10543000C8FC00EB07102206016C21F4FE4118BFE6
:1054400001F5A061016401B0F0BD70B50C460546E0
:10545000066800F039FD297D30466C762246BDE8AD
:10546000704000F005BB2DE9F047477D052F02D1C4
:105470004FF0000C65E0877D002F65D190F814C0D7
:10548000BCF1200F67D2DDE908970124DDE90AA805
:10549000002F847518BF40F2014444EA0924DDF866
:1054A00030E0056944EA4834BAF1000F18BF44F40B
:1054B0000064BEF1000F4FEA0C1605EB0C1C18BF80
:1054C00044F48054AC53ACF802309FB119F0030798
:1054D00004D0012F0CBF0227042700E0012707FB9F
:1054E00003F47546BEF1000F18BF08F00F05AC407D
:1054F00011FA84F1BAF1000FCCF8041012D019F0AF
:10550000030104D001290CBF0221042100E0012184
:10551000594308F00F03BEF1000F18BF0023994054
:1055200012FA81F2CCF80820C17D31B1017D202929
:1055300015D2006900EB011000E000200CF10C0115
:1055400008606046BDE8F08740F25030C0F20200CB
:1055500000F0C5FCFEDE40F25C40614601E040F236
:105560005C40C0F20200202200F0D8FCFEDE2DE9F3
:10557000F04381B01E46904689460746046800F015
:10558000A3FC08203D7D7875204600F01AFC00EB56
:105590000510022180F84E10397D202941D238694A
:1055A0000A0100EB0114825AC2F3012000F0A6F8B0
:1055B000310418BF6680C0B2B9F1000F15D0218840
:1055C000490510D5618820B101280CBF02220422B0
:1055D00000E0012251432288D20442BF2288520BAC
:1055E000914019FA81F9C4F80490B8F1000F15D070
:1055F0002188090510D5618820B101280CBF02203F
:10560000042000E0012048432188C90442BF2188CA
:10561000490B884018FA80F8C4F8088001B0BDE84A
:10562000F08340F25C402022C0F2020000F076FCE1
:10563000FEDEB0B50446056800F046FC284600F0E2
:10564000C0FB217D00EB011090F84E00C0F340003C
:10565000B0BDB0B50446056800F036FC284600F041
:10566000B0FB217D00EB011090F84F0000F001002D
:10567000B0BDD4D410B584B00078DFE800F0040BDE
:10568000121920252C3101AC40F26832C0F202021E
:1056900008232BE001AC40F29532C0F202020E2347
:1056A00024E001AC40F28B32C0F202020A231DE07A
:1056B00001AC40F28932C0F20202022316E040F24D
:1056C0008232C0F202020FE001AC40F27032C0F24E
:1056D000020204230AE040F27B32C0F2020203E03D
:1056E00040F27432C0F2020201AC0723204600F0FF
:1056F00039FF204600F070FC04B010BD81B20329D0
:1057000038BF70478AB0ADF80600012008A907909D
:10571000069100210591CDE9030140F2B830C0F2B5
:10572000020040F2FC31029046F27160C0F20000CB
:10573000C0F2020109900DF10600089002A800F0E5
:105740000DFCFEDE2DE9F04182B0044608461E46FF
:10575000904600F040FB01AF6FF07F410161384699
:1057600000F02FFB00250580384600F02AFB0121C0
:105770000180384600F025FB4663384600F021FBE7
:1057800006F500718163384600F01BFB40F602719C
:105790000180404600F07FF82570656002B0BDE8EA
:1057A000F081704710B582B0044601A8002100F0D6
:1057B0005AFBA06802B010BD89B24FF47A7251430F
:1057C00000F006B8C9B24FF47A72514300F000B845
:1057D000F0B581B0044600684DF68362C4F21B3216
:1057E000A0FB0202900C00FB01F6D6B16FF07F47E0
:1057F0006FF07F45BE4238BF35462046294600F04F
:105800003FFB204600F00EFB204600F01BFB20462D
:1058100000F021FB0028FAD0204600F00AFB761B9E
:10582000E6D101B0F0BD89B2FFF7D2BFC9B2FFF730
:10583000CFBF48F20800C4F20010704748F20400DD
:10584000C4F20010704748F24000C4F200107047E4
:1058500048F21800C4F20010704748F23000C4F259
:105860000010704748F28800C4F20010704748F2F8
:105870008400C4F20010704748F2C000C4F2001067
:10588000704748F29800C4F20010704748F2B00028
:10589000C4F2001070472DE9F04383B004460DF1C7
:1058A00002001F258DF8025000F028F900F01F01BA
:1058B00000F0E0004FF0010808FA01F7C60800F018
:1058C000ECFA87510DF103008DF8035000F016F942
:1058D0000546204600F0E6FA50FA85F04FF0070939
:1058E000202580F8009301A88DF8045000F006F9F7
:1058F00000F01F0100F0E00008FA01F6C70800F010
:10590000CCFAC6510DF105008DF8055000F0F6F8FF
:105910000546204600F0C6FA50FA85F0212580F8A9
:1059200000930DF106008DF8065000F0E7F800F046
:105930001F0100F0E00008FA01F6C70800F0ADFA18
:10594000C6510DF107008DF8075000F0D7F8054655
:10595000204600F0A7FA50FA85F0222580F800933F
:1059600002A88DF8085000F0C9F800F01F0100F0FF
:10597000E00008FA01F6C70800F08FFAC6510DF1F1
:1059800009008DF8095000F0B9F80546204600F0EE
:1059900089FA50FA85F0232580F800930DF10A006A
:1059A0008DF80A5000F0AAF800F01F0100F0E000A6
:1059B00008FA01F6C70800F070FAC6510DF10B00A5
:1059C0008DF80B5000F09AF80546204600F06AFA70
:1059D00050FA85F080F8009303B0BDE8F083F0B58D
:1059E00081B01C4615460E46074600F0EAF9F6B2AD
:1059F000002100EB061080F84510384600F0E1F970
:105A000040F20C4200EB061061B2C0F20202036CDD
:105A100048F2FF0752F82110CFF2CF0703EA07023E
:105A20002B0618BF02F5A0621143016401B0F0BD5E
:105A300070B514460D46064600F0C3F9EDB204F009
:105A4000070400EB051080F84D40304600F0B9F92E
:105A500000EB051084F0070180F84C10304600F090
:105A6000B0F900EB0510016C41F00201016470BD5A
:105A7000B0B50C4651B240F20C42C0F2020252F8EC
:105A8000215000F09EF9E1B200EB0110016C21F40D
:105A9000401129430164B0BDB0B50C46016804F063
:105AA0001F02012505FA02F211421CBF0520B0BDFC
:105AB0001143016000F085F9E1B200EB01100564CB
:105AC0000820B0BD704780B500F09EF980BD10B5CC
:105AD00082B00446084600F07EF9816941F48041B5
:105AE000816101A800F090F9016821F002010160D4
:105AF000C17A0907FCD4206802B010BD0178872064
:105B0000DFE811F06E00700072007400760078001B
:105B10007A007C007E00800082008400860088007D
:105B20008A008C008E0090009200940096009800ED
:105B30009A009C009E00A000A200A400A600A8005D
:105B4000AA00AC00AE00B000B200B400B600B800CD
:105B5000BA00BC00BE00C000C200C400C600C8003D
:105B6000CA00CC00CE00D000D200D400D600D800AD
:105B7000DA00DC00DE00E000E200E400E600E8001D
:105B8000EA00EC00EE00F000F200F400F600F8008D
:105B9000FA00FC00FE0000010201040106010801F8
:105BA0000A010C010E011001120114011601180165
:105BB0001A011C011E0120012201240126012801D5
:105BC0002A012C012E013001320134013601380145
:105BD0003A013C013E0140014201440146014701B6
:105BE0000020704701207047022070470320704753
:105BF0000420704705207047062070470720704733
:105C000008207047092070470A2070470B20704712
:105C10000C2070470D2070470E2070470F207047F2
:105C200010207047112070471220704713207047D2
:105C300014207047152070471620704717207047B2
:105C400018207047192070471A2070471B20704792
:105C50001C2070471D2070471E2070471F20704772
:105C60002020704721207047222070472320704752
:105C70002420704725207047262070472720704732
:105C800028207047292070472D2070472E2070470C
:105C90002F207047302070473120704732207047E6
:105CA00033207047342070473520704736207047C6
:105CB0003720704738207047392070473A207047A6
:105CC0003B2070473C2070473D2070473E20704786
:105CD0003F20704740207047412070474220704766
:105CE000432070474420704745207047502070473C
:105CF00051207047522070475320704755207047FD
:105D000056207047572070475820704759207047D9
:105D10005A2070475B2070475C2070475D207047B9
:105D20005E2070475F207047602070476120704799
:105D30006220704763207047642070476B20704773
:105D40006C2070476D2070476E207047732070473D
:105D50007420704775207047762070477720704711
:105D600078207047792070477A2070477B207047F1
:105D70007C2070477D2070477E2070477F207047D1
:105D800081207047822070478320704784207047AD
:105D90008620704770470021C0E90011C0E9021158
:105DA000704710B584B001AC40F26C42C0F2020200
:105DB0000723204600F0D6FB204600F00DF904B082
:105DC00010BD4AF20000C4F20010704741F60040D6
:105DD000C4F20000704740F60000C4F200007047B3
:105DE00044F20000C4F20010704741F20000C4F217
:105DF0000000704741F20040C4F20000704743F2D7
:105E00000000C4F2000070474CF20000C4F2011020
:105E1000704740F201000121C2F20000017070479A
:105E2000704770474EF218000021CEF2000001606A
:105E300070474EF21000CEF20000016821F001011F
:105E4000016070474EF21000CEF20000016841F090
:105E50000101016070474EF21000CEF200000068B0
:105E6000C0F3004070474EF210000029CEF200004F
:105E7000026842F0040318BF22F004030360704775
:105E80004EF21400CEF200000160704740F20200B2
:105E90000121C2F20000017070474EF20010CEF2F4
:105EA000000070474EF20010CEF2000070470078FC
:105EB000B0FA80F040097047704772B6704762B61A
:105EC0007047EFF3108070477047704744F2D4502A
:105ED00043F29241C0F69A50CDF20D0170478CB05A
:105EE000D0E900E240F27445D0E902C30024D0E9D1
:105EF0000410C0F20205CDE90A1008A9059468460D
:105F00000495CDE902440124019406AC0094CDE946
:105F100006E2CDE908C300F021F8FEDE8CB00346AE
:105F2000CDE90012022008A90790069100210591F1
:105F3000CDE9030140F2BC40C0F202006946029084
:105F400046F27B60C0F200000B90CDE9090101A888
:105F5000089002A8194600F001F8FEDE88B0D1E9E9
:105F600000C3D1E902210791CDE90532CDE9030C47
:105F700040F29840C0F20200029040F27440C0F239
:105F80000200019001A800F088FBFEDE8EB08DE8D3
:105F90000F0002200AA90990089100210791CDE97C
:105FA000050140F2D040C0F2020040F2F8410490F6
:105FB00046F28560C0F20000C0F202010D9002A816
:105FC0000C9046F28F60C0F200000B9068460A9079
:105FD00004A8FFF7C3FFFEDEB0B50446057A4068AB
:105FE00008B30DB101251DE0012810D1607A70B110
:105FF0002168087840070AD4D1E906010122CB685C
:1060000040F2D151C0F202010125984750B92168F0
:106010000122D1E90601CB6840F20851C0F2020129
:10602000984705462572002D18BF01252846B0BDAA
:106030002DE9F04F83B0DDE90C691F469246044616
:10604000C9B1D4F800E04FF02B081EF0010108BFE1
:106050004FF4881801EB090B5FEA4E7114D5BFB1FC
:10606000791E07F0030C032914D200215346BCF11A
:10607000000F36D14DE0D4F800E009F1010B4FF0EC
:106080002D085FEA4E71EAD400274FF0000A44E081
:1060900000213EE0CDE90196ACEB07060021534616
:1060A0001D785A78987805F0C00593F80390802DF4
:1060B00002F0C00208BF0131802A00F0C00008BF12
:1060C0000131802809F0C00008BF0131802808BFD5
:1060D000013104330436E3D1DDE90196BCF1000F50
:1060E00017D0187800F0C000802808BF0131BCF13B
:1060F000010F0ED0587800F0C000802808BF013191
:10610000BCF1020F05D0987800F0C000802808BFCD
:1061100001310BEB0700A0EB010BA068012815D1A2
:10612000E5685D4512D95FEA0E70029623D494F8B3
:106130003010A5EB0B060020032908BF0121DFE882
:1061400001F0390236023046002633E0204641464F
:1061500052463B4600F080F820B10126304603B09D
:10616000BDE8F08FE1694A46A069CB68314603B0CB
:10617000BDE8F04F18470126302084F830604146D2
:106180006060204652463B4600F066F80028E5D1A4
:1061900094F83010A5EB0B060020032908BF01215D
:1061A000DFE801F035023202304600262FE0711C94
:1061B00070084E08451C013D07D0D4E9060261680D
:1061C000126990470028F6D0C7E72046414652465C
:1061D0003B46D4F804B000F03FF80028BDD1D4E924
:1061E00006014A46CB68029998470028B5D1D4E900
:1061F0000654771C0126013F2CD0226928465946B7
:1062000090470028F7D0A9E7711C70084E08451C7C
:10621000013D07D0D4E90602616812699047002861
:10622000F6D09AE7D4E906014A46CB680299D4F839
:106230000480984700287FF490AFD4E90674751C59
:106240000126013D06D02269384641469047002884
:10625000F7D083E7002681E770B51C461546064651
:10626000B1F5881F06D0D6E906021269904708B139
:10627000012070BD3DB1D6E906012246CB68294612
:10628000BDE870401847002070BDD4D42DE9F04F10
:1062900081B0D0F808E08246006991468846BEF198
:1062A000010F0FD188B9B9F1000F00F0AB80A9F14F
:1062B000010109F00300032960D2002142460028B1
:1062C0007CD1A0E0002800F0B380B9F1000F4ED0DF
:1062D000DAF8140008EB090100224746431C464641
:1062E0003C4614F9015BB5F1FF3FE8B228DC8C4273
:1062F00005D07D78BC1C05F03F05274601E0002550
:106300000F4600F01F0BDF2807D98F4208D017F87F
:10631000014B04F03F0C3C4605E045EA8B100FE0D2
:106320004FF0000C0F464CEA8515F02806D38F423B
:1063300010D017F8010B00F03F000DE045EA0B30DC
:106340002746013B51D0901BB94200EB07023E4665
:10635000C6D14EE0002027464FF4E01404EA8B44F7
:1063600044EA85152844B0F5881FEAD141E00022AF
:10637000BEF1000F41D1DAE906015EE0A0EB0903AE
:10638000002142461778567807F0C0079578D478F0
:10639000802F06F0C00708BF0131802F05F0C0072D
:1063A00008BF0131802F04F0C00708BF0131802FE2
:1063B00008BF013104320433E4D120B3137803F071
:1063C000C003802B08BF013101281CD0537803F093
:1063D000C003802B08BF0131022814D0907800F050
:1063E000C000802808BF01310DE0B0F5881F40F0E3
:1063F00076804A46BEF1000FBDD09146B9F1000F3C
:106400007FF455AF0021DAF80C00A9EB01018142BD
:106410000ED2B9F1000F16D0A9F1010109F0030C59
:10642000032912D200214346BCF1000F2FD146E0D0
:10643000DAF81C104A46DAF81800CB68414601B079
:10644000BDE8F04F1847002139E0ACEB0907002107
:1064500043461E785D7806F0C0069C78DA78802E78
:1064600005F0C00608BF0131802E04F0C00608BF49
:106470000131802E02F0C00208BF0131802A08BF1E
:10648000013104330437E4D1BCF1000F17D01A787E
:1064900002F0C002802A08BF0131BCF1010F0ED00A
:1064A0005A7802F0C002802A08BF0131BCF1020F05
:1064B00005D09A7802F0C002802A08BF01319AF80C
:1064C0003030A1EB09010E180020DA1E18BF1A4661
:1064D000DFE802F00E020B023046002608E0002A38
:1064E00018BF4A452CD1404633E0711C70084E0855
:1064F000441C013C08D0DAE90602DAF804101269FB
:1065000090470028F5D013E0DAE906014A46CB6847
:106510004146DAF80470984750B9DAE90645013681
:10652000013E09D02A692046394690470028F7D015
:10653000012001B0BDE8F08F002001B0BDE8F08F70
:106540004A4504D218F9020010F1400FCBDA0020BE
:10655000002200280CBF4A468046BEF1000F7FF49F
:106560004CAF08E770B50D460646D1E906011C465A
:10657000CB681146224698473072B4FA84F040093D
:1065800070720020C6E9005070BD2DE9F04F8FB049
:1065900040F2095E174648F21F520D4642F2107152
:1065A0008842C5F2EB12C0F2020E39D341F259799A
:1065B0004EF2FF080DF1140B0024CDF2B7194FF085
:1065C000640AC0F2F558CDE90357A0FB09560BEB5E
:1065D0000403043C40454FEA563505FB11062846A6
:1065E000B7B2A7FB027C4FEA5C1707FB1A663EF8BE
:1065F0001770A3F82370B6B23EF81660A3F82560B2
:10660000E3D82846DDE90357273463280BDC03462B
:106610000A2B17DBA01E3EF8133005AA135215E013
:1066200027246328F3DD83B2023CA3FB02636426C4
:106630005B0903FB160005AE80B23EF81000305334
:106640000A2BE7DA601E05AA30331354C0F1270382
:1066500005AA104440F27442CDE90003C0F20202E0
:10666000384629460023FFF7E3FC0FB0BDE8F08F62
:1066700000880A460121FFF788BF00680A46012109
:10668000FFF783BFD0E90020C368104618470B46C8
:10669000D0E900121846FFF7F9BDFEE7F0B582B366
:1066A000531E02F0030C032B04D20022BCF1000F96
:1066B00019D126E0ACEB020E4B1C441C6FF0030218
:1066C0009D18A7180432EE78FE702E793E716E790F
:1066D0007E71AD79BD710EEB02050435F0D1043247
:1066E000BCF1000F0DD08B5CBCF1010F835408D0BE
:1066F000531CBCF1020FCF5CC75402D00232895C3C
:106700008154F0BD042A38BFFFF7C8BFB0B5A2F16D
:10671000040C012303EB9C0313F003030ED08E46FD
:1067200004465EF8045B012B44F8045B1FD163460A
:1067300020467146BCF10C0F04D212E01346BCF1A6
:106740000C0F0ED30D68103B0560032B4D684560A0
:106750008D688560CD6801F11001C56000F1100001
:10676000F0D802F00302BDE8B040FFF797BF4D68D4
:10677000022B456007D1A2F1080308310830BCF1B3
:106780000C0FDFD2EDE78B680C318360A2F10C03B4
:106790000C30BCF10C0FD5D2E3E7FFF7B3BF10B557
:1067A000002908BF10BD4B1E01F0030C032B01D2C2
:1067B00000210FE0ACEB010E411C6FF00303CC187D
:1067C0000433A27162712271E2700EEB030404348F
:1067D000F5D1191DBCF1000F1CBF4254BCF1010FD3
:1067E00000D110BD0844BCF1020F427018BF827086
:1067F00010BD1346D2B2042938BFFFF7D0BF10B581
:10680000A1F1040E42EA0363012443EA024304EBCC
:106810009E0443EA022314F003040AD08446012CA8
:106820004CF8043B0AD174466046BEF10C0F14D2FA
:106830001CE00C46BEF10C0F18D30EE0022C436096
:1068400003D10830A1F1080403E083600C30A1F10A
:106850000C048446BEF10C0F08D3C0E90033103C91
:10686000C0E902331030032CF7D8844601F003014D
:10687000BDE810406046FFF792BF0022FFF7B9BFA6
:1068800000F03AF840F2040040F20001C2F20000C9
:10689000C2F20001814208D240F200010022C2F29D
:1068A000000141F8042B8142FBD340F2000040F28A
:1068B0000001C2F20000C2F2000181420DD240F29A
:1068C000D45140F20002C0F20201C2F2000251F8BB
:1068D000043B42F8043B8242F9D34EF68850CEF294
:1068E0000000016841F47001016000F001F8FEDE73
:1068F000FDF7D8FCFEDEFEE7704770460421084233
:1069000002D1EFF3088002E0EFF30980FFE7FEE732
:1069100063616C6C656420604F7074696F6E3A3AA5
:10692000756E77726170282960206F6E206120601B
:106930004E6F6E65602076616C75657372632F6C47
:106940006962636F72652F6F7074696F6E2E7273F8
:10695000106900002B0000003B69000015000000DA
:106960007A0100001500000063616C6C65642060B2
:10697000526573756C743A3A756E77726170282936
:1069800060206F6E20616E206045727260207661BB
:106990006C7565006142000001000000010000000C
:1069A0007556000063420000000000000100000076
:1069B000A35D0000FF0000FF7EAA997E5100010543
:1069C0009200216202B382000072015011000101A5
:1069D00000000000000000000000000000000000B7
:1069E00000000000000000000000000000000000A7
:1069F00000000000000020000000000000802000D7
:106A000000002000000000000080000200000002E2
:106A10000000000000000000000000000000000076
:106A20000000000000000000000000000000000066
:106A30000000000000000000000000000000000056
:106A40000000000000000000000000000100000045
:106A5000000000040000000001000000000000042D
:106A600000000001C0001000000000000000000055
:106A70000000000000000000000000000000000016
:106A80000000000000000000000000000000000006
:106A900000000000000000000000000000000000F6
:106AA00000000000000000000000000000000000E6
:106AB00000000000000000000000000000000000D6
:106AC00000000000000000000000000000000000C6
:106AD00000000000000000000000000000000000B6
:106AE0000000000000000000000000018000000025
:106AF0000000000000000000000000000000000096
:106B00000000000000010000000000000000000084
:106B10000000001000000000000000000000000065
:106B20000000000000000000000000000000000065
:106B30000000000000000000000000000000000055
:106B40000000000000000000000000000002000043
:106B500010000000000000401000000030000000A5
:106B6000070000C000010020000D00000000000030
:106B70000000000000000000000000000000000015
:106B80000000000000000000000000000000000005
:106B900000000000000000000000000000000000F5
:106BA000000000001C000300000000F0000C0000CA
:106BB00000000E0000000000000800000001C000FE
:106BC000F0000000000000000000000000000000D5
:106BD00000000000000000000000000000000000B5
:106BE00000000000000000000000000000000000A5
:106BF0000000000000000000000000000000000095
:106C00000000000000000020030000000000000C55
:106C10000000000000000000000000000000000074
:106C20000000000000000000000000000000000064
:106C30000000000000000000000000000000000054
:106C40000000000000000000000000000000000044
:106C5000000000000000000000000000001E0020F6
:106C600000000000000080000000000000000000A4
:106C70000000000000000000000000000000000014
:106C80000000000000000000000000000000000004
:106C900000000000000000000000000000000000F4
:106CA00000000000000000000000100000000800CC
:106CB0000040000140801000000001800040000002
:106CC00000000801000000000000000000000000BB
:106CD00000000000000700000000000000000000AD
:106CE00000000000000000000000000000000000A4
:106CF0000000000000000000000000000000000094
:106D00000000000000300000000000000000000053
:106D1000000800000000000000000000000000006B
:106D20000000000000000000000000000000000063
:106D30000000000000000000000000000000000053
:106D40000000000000000000000000000000000043
:106D500000000000000000400000000000030000F0
:106D60000000004000000000800300000000000060
:106D70000C00000000000000000000000000000007
:106D800000000000004000000000000000000000C3
:106D900000000000000000000000000000000000F3
:106DA00000000000000000000002000000000000E1
:106DB000080000001C02000E00080000080050003F
:106DC0002000002000000000000000000000000083
:106DD00000000000000000000000000C00000000A7
:106DE00000000000000000000000000000000000A3
:106DF0000000000000000000000000000000000093
:106E00000000000000000000070000000001C000BA
:106E10000000000000000000000000200000000052
:106E200000000000000000000000018000000000E1
:106E30000000000000000000000000000000000052
:106E40000000000000000000000000000000000042
:106E50000000000000000000000000000000000032
:106E60000000000002000000000000000000000020
:106E70000000C00000000000000000000000000052
:106E80000000000000000000000000000000000002
:106E900000000000000000000000000000000000F2
:106EA000000000100000000000000000000000C012
:106EB0004000000000000100000000004000000051
:106EC00000000100000000000004000000000000BD
:106ED00000000000000000000000000000000000B2
:106EE00000000000000000000000000000000000A2
:106EF0000000000000000000000000000000000092
:106F0000000000010020000000000400000000005C
:106F10000000000000000000000000000010000061
:106F20000000000000000000000000000000000061
:106F300000000000000000000101C017CC30241048
:106F40000000000000000020000000000000000021
:106F500000000000000000000000000001500010D0
:106F600000001C694C080007000000100000000031
:106F700000000000050000000000000040000000CC
:106F800000000000000000000000000000000010F1
:106F90001C3BC0C300000000000000000017C00040
:106FA00000000000000900000000000000000000D8
:106FB000010000B080100001024206000000080D30
:106FC00000200000000000000000000000000000A1
:106FD0000001400000000000000000000000000070
:106FE00000000000006002E784CC30218000000037
:106FF0000000060000047BE200180001E000000031
:1070000000000000000001800000800010060E203B
:10701000014E0180200000409006000000000000AA
:10702000193A0000000000608140000000001200DA
:10703000000000000000000000000000002E0050D2
:10704000C300400070000000000001C200AE2080BC
:1070500000500000000000010000000000000000DF
:10706000050020010003C004010005F0B03C000051
:1070700000000000000000284000000000000002A6
:10708000000000000280000000000000000000007E
:1070900000000001E016EC3020002000000000009D
:1070A000000600010240000000180001000000007E
:1070B0000000000300000F00001004001E064C0337
:1070C0000040180040900000000000000030000068
:1070D000000000000000000181040000000000002A
:1070E00000000000000000000000020250C3010088
:1070F00000000000000000000000900000000008F8
:107100007002000000000000000000000189002063
:1071100000400002BE01000000B02C000000000092
:10712000000000000000000000000000000000005F
:107130000000000000000000000000000000000847
:107140000007A5CC302000000000000000003E0039
:107150000000000028000000000004000000000003
:10716000000008000284100000A47BCE0000000A8A
:10717000000010000080000000000100001000006E
:107180000004E0000000000000000000000000001B
:10719000000000000000401C7850C30040000000C8
:1071A000000000001440000000000000000000008B
:1071B000008000000000000000B00040008000F5EA
:1071C000C00E0100000101002000001000000000BE
:1071D0000020000F00000000800000000000000000
:1071E0000000000000000000000000000001E05668
:1071F000EC3220000000000000000004000000400D
:10720000000000000000000000000000000000007E
:107210000000000000201402EC00000000800010BC
:10722000000000000000000000000000000000005E
:10723000004000000000000000000000000000000E
:1072400000000000003940C3000000000000000002
:10725000000020140080000000000000000000007A
:107260000000000000000000000000000162B60401
:1072700000000001002000000000000000000000ED
:1072800000000000000000200000000028000000B6
:107290000000000000000000000015C065AC3024B4
:1072A000000780780010000A866061E70000000097
:1072B0000027140000000000000000000000000093
:1072C00000000E1C2ACE00102000000090000C00D0
:1072D000000000000000000000000000014000006D
:1072E000000000000000000000000000000000009E
:1072F00000823650C300000000008010000004002F
:107300000CD42004000000D67280100000000000A1
:1073100000000000000000000000201C04028500A6
:10732000002C00000003C00000000000000000006E
:107330000000000200000000003800000000000013
:1073400000000000000000020236CC3020000000E7
:1073500000000000000005C1A500000000000000C2
:10736000000000000000000000000000000000001D
:10737000146BEC0000000080001000000000000012
:1073800000000000006841800000000000000000D4
:1073900000000000000000000000000000001C3899
:1073A00040C300800000000000000000020686606C
:1073B00000000000000000000000000000000000CD
:1073C000000000000000002006004000000900202E
:1073D00000000000000000000000000400040000A5
:1073E000000000000000000000000000000000009D
:1073F000000000000003A5EC32200001981FF448B3
:1074000000060000010240002C18000000000000EF
:10741000000000000000000000000004E0803ACE00
:1074200000000000000000040000001C10600100CB
:1074300000000000000060000C1A50000000000076
:107440000000000080000000000000004350C30066
:10745000000000003344000A000000C000000000EB
:10746000000000000000000000000000000000001C
:107470000000CE14469601000000F000000000005D
:107480000000000400080000000000000000006C84
:107490009909000000000000000004000000000046
:1074A0000001C78CEC302000000000001000001E1E
:1074B00000000000000000000000000000000600C6
:1074C0000400000000D6A80000202603D880000F8A
:1074D0001E5800100000000060008000000000380E
:1074E00041000001E000000000000000000000007A
:1074F00000000000000000481C43C0C30000000062
:107500000700200000002000000000000000000034
:1075100000000000002004000008000F43E86000A5
:1075200002603500000071000010400003400200BE
:107530000020000000040000000000000000000027
:1075400000000000000000000000000000600000DB
:107550000DAC3021A28000506040060826000102D8
:10756000401800000000000060600600000001807C
:1075700000011816801680607A6A818188000016E2
:107580008006080628400080180001C7F1540060FA
:10759000A000000000000000000000000008000043
:1075A00000000000001C0060C300000000072F6CFA
:1075B000010A03C00080000000000000000000215C
:1075C0000000000000003800B08168810C0E43BC50
:1075D000000000F0010294440000040000000000DC
:1075E000001004154400000000000000000000002E
:1075F000000000000000000000000001E697CC3011
:107600002003078078001000000000000000100038
:1076100000000000000000000000000000071853F8
:10762000BD400400167E5807000000100010000046
:1076300000054833E040040000000000C0000004E2
:107640000004000000000000000000000000000036
:1076500000088278E0C30000000000001000000075
:107660000000000002000000000000000000000018
:1076700000000000100D414060C088025D00000065
:107680000000801000000002020CC000002000007A
:1076900000000C00000000040000000000000000DA
:1076A000000000000000000003E05DCC302000007E
:1076B0000100409000E08000000000002000000079
:1076C00000000080000000000000210138001000D0
:1076D0000A067E4A0401080000000000000401C8F8
:1076E00033C00000500000000000000040102400E3
:1076F0000000000000000000000000000000002E5C
:107700003F50C300000000D03C000008040000000F
:10771000000000000000000000015C00000000000C
:107720000400800010000000265C000001700000D2
:107730000000000000020CC0840000800000000077
:107740000000380B000000000000000000000000F6
:10775000000000000000E3DFCC302000001D3829CD
:107760004000000600000000008000000000000053
:1077700002000000000000000000000000A0000166
:107780005800000000000000002000000933E10064
:107790000081A30001000000000000000000004084
:1077A0000000000000000000000000023E7B50C30B
:1077B000000100018BAA64800000000000000000AE
:1077C00000000000000000040000000000000000B5
:1077D0000000000000003F04000000000000000066
:1077E000000000CCC10000010008010400000400FA
:1077F0000000000002000000000000000000000087
:10780000000003C3C5EC302000001C000000000A8B
:10781000000060E7004002000004090000000000D2
:107820000000001000005BAC40008000286A0000EF
:107830000000000000000020040933E10000000007
:1078400068410104000000C104002800000000009D
:107850000000000000000000000C7640C3000000A3
:10786000010000000000100004C4200028100003E4
:10787000C00010000000000000020010006AC440B8
:107880000404403E0400000000000000000042002C
:107890008CC100000008000004408040000000008F
:1078A00001040000000000000000000000000003D0
:1078B000C776CC3020300998302940008000000085
:1078C0000000000080000000000000020000000036
:1078D00000001C0000900000342978000000000027
:1078E00000100000006208336100000019820420CB
:1078F0000000020000000000000000000000000086
:107900000000000000409E78D0C3000000100FAAC5
:1079100064040000000000000000070000000000F8
:10792000000000000000000000802800000002426B
:107930009F04010000010020000000002C0CC00882
:1079400000200A7B39C20000000000000000000097
:1079500000000000002000000000000003C006AC92
:1079600030200008010000000006000000000000B8
:107970000200100001010008003CCF500000500838
:107980000000000C0094036A0002100006041004BA
:1079900000000000000000001800000000000000CF
:1079A00000000000002000000000000000000000B7
:1079B0000000001E03C0C300000010800000000093
:1079C00000000000000000100970020000A040014B
:1079D00060A00000020000000000400142AC08006E
:1079E000020000000000CA000000000000000000CB
:1079F0000000000021000000000000010000000065
:107A000000000000000000000000006FCC302010DB
:107A10000001000000000020001BB1000000380140
:107A200080010000000000000000000000F2A948F2
:107A30000001200218000000003840200000000073
:107A40001C33400005000000000000006040000002
:107A50000000000103041000000600E000400008E0
:107A6000002E50C320000000800000000003C0056D
:107A7000C72004000000000100000000000000001A
:107A800000000005C154400121C02500000A00008B
:107A9000AC000000000281CCC10400000000000026
:107AA00000000020000000002800F040000000005E
:107AB00000160A54000001E7E4CC302180081C982D
:107AC000694006000000000000180218007744001A
:107AD0006080028010240180000000409006001E9B
:107AE000241A01902181D2143006001400000000F5
:107AF000181000000000006000000C00040180006D
:107B000000000000060000000A05400000003E6082
:107B1000C3100000110D39980000000000000000A3
:107B2000281000373880000100000900000000F034
:107B3000F03C0000001666D5000205F08500150037
:107B400000154000000000200000000000000000C0
:107B5000000004000000000000000000000014000D
:107B6000A5000001E02CEC322000201E0000900057
:107B7000002001DDA300000018000000004000000C
:107B80000000000001098002E8C80400207A180300
:107B9000200180F21430000000297A80404000006B
:107BA0001000000000000000102401004000000050
:107BB000000C003E000000000008820240C30000EC
:107BC0000501003C000000004001EA300400000014
:107BD00000000008000000000000000870EF654C85
:107BE00040C003C03D0000080001801500000000F7
:107BF0003690000000000A000000004000000E0067
:107C00000010020000000000000060000000000002
:107C100001E736AC302002000192A8000026800463
:107C200000000000280000704100108200200004C5
:107C300000018181004090000000261A0000001E13
:107C40008204B000082000013C0000001800000081
:107C500000000042000000000220000000000000C0
:107C600000000000000000027A60C320000500D779
:107C7000C3D4800004020000000000000F000000D8
:107C800001011401400800000000F038000000026B
:107C900047CD000000F10534850000004280C3C0DC
:107CA0000C001000000000000000000000000005B3
:107CB0000000000000000000000000000003E03DA4
:107CC0008C30200000000000900000000000000048
:107CD0000100900132940000000000000000380014
:107CE000003AA940400000001A000000188244B089
:107CF00000002002F8020000000000000000000266
:107D0000000000000008000E00000000000000005D
:107D1000000000023E0260C32000000000380000A6
:107D200000000000000000200100F02A8000000098
:107D300000000000010000FBC2A84000A0003C00C1
:107D40000000000130850000004006C00000000077
:107D500000000000000014000000000028000000E7
:107D60000000000000000000000001C7BFCC302070
:107D7000200019000000000080380000400000F8DA
:107D80001832C40000E0000000000000001880006D
:107D90001000800E021A000008188244B00000167D
:107DA0006000000000020005FBD1800400600000BC
:107DB00000000020003800100000006000000000FB
:107DC000003E4260C300410000800000000005C486
:107DD0003C008000005108D31C800000000000001F
:107DE000000000000D002000000020050000001031
:107DF000052085000000000000000000000002FDDA
:107E000010200002000000000000F0000010000040
:107E100000000000000000020027AC3024000198A0
:107E2000070410000020040A104002000180000135
:107E3000000A0000000000000000195079C800008E
:107E4000007818000000015A449000000000000073
:107E5000000000000000000000000001DA32000015
:107E600000000000000000000000000000401C2294
:107E700070C300000000004000000001C2000000CC
:107E80000010000050020000000000000000002070
:107E900000E5A10880006000050000020080244980
:107EA00000000000000000000100000000000000D1
:107EB00000024A5310000000000000000000000013
:107EC00000000000000227AC302002000087744050
:107ED000000006000000000000000000000000009C
:107EE0000000000000108800000090040000721ADA
:107EF000010320005E41900C009E00013C40503088
:107F0000700000000000896001BB128000000000CA
:107F10000000040000000AF5400000000260C320D9
:107F200000007007678800000000000000000040AB
:107F300000000000002000000000000000B0E02869
:107F40000000400004350000010000B41900C0002A
:107F50000000D3C10000008000000000A000005C11
:107F6000720000040000000000000000040FAC00DC
:107F7000000000018C3020000500000000000020FF
:107F80006BCAF5000000918B7A6C000002078081BB
:107F9000040000000100000000003C74680000873D
:107FA00000000000000000000000000000000000D1
:107FB0000000000000000000000001800000000040
:107FC0000000000000000000000000C320000000CE
:107FD000000000000000400D0A0000000100379F73
:107FE000C000000440100000000000E0000000009D
:107FF00003C7ED01000008000000000000000000C1
:1080000000000000000000000000003C0000000034
:10801000000000000000000000000000000001E07F
:1080200001AC302180000058001006000000000064
:10803000001800000000010060C000000000000007
:10804000000000000006001E626E0190000080002B
:1080500010060000000000000002000000000060A8
:108060000000000000018000005F295000000000B7
:108070000000000000000000C3008000000080102D
:108080000000000000000000280000500200000175
:108090000000000000000400000000000001E7F5FF
:1080A00001008000070020400000000000000000E8
:1080B00000000000000000000000000000000001BF
:1080C000C2BD0400000000000000000000018C3070
:1080D0002100000000000000000004000240100029
:1080E000D1C5A7FC0040014280000000280000002C
:1080F000000004002666480800000016F140000059
:10810000000000000000000000000000400000002F
:10811000000000000000000000000000000000005F
:108120000048000000C300600000000000000000E4
:10813000020080000200050076CB80080A000000E3
:108140000000000000F00000004001E655000020A3
:1081500000007F14400003C0000000000000000089
:10816000000004000000000000000000000000000B
:10817000000000000000000001E001AC3024000815
:108180000A00009000000068000000000050800419
:10819000090004600004F3D00000000000000000AB
:1081A0000026066E00020001000000000000000032
:1081B00000000000000000000004000000000000BB
:1081C00002805E00000000000000000000000000CF
:1081D0000000C30000003000340000000000000078
:1081E000000000010802C0000080003C0F3D00407C
:1081F0000000000000000402625701000000E000DF
:10820000000000000000000000004000000000002E
:10821000000000000000000000000000000000005E
:108220000000000001000001CC3024040008000020
:108230000000101C004DBA000140180000090001A8
:1082400001C0000000000400000000000010002138
:1082500048000400000000000010000000000000C2
:1082600042000000000001000000E10600040000E0
:10827000000000001000000000000012000000C319
:1082800000004800000000000100201EB7F0040CB0
:108290000000028000009000000000000048F00094
:1082A000000000010006350400400000000000014D
:1082B000000000000000044000000000001000006A
:1082C000100000004000000000000100000000005D
:1082D000000101C001EC302004000000000000108B
:1082E0002000000000004080058001000500000023
:1082F000000000040000000000001000044E000414
:1083000000000000000010000000000000690000F4
:108310000000000108000000000004000000000050
:10832000001000000000000010000000C3008040AA
:1083300000000000000100C0000000000407000071
:10834000010000900000000000004000000000005C
:10835000010043350400400000000000010000005F
:108360000000000450000000000030400000000049
:10837000004000E0000000010000000000000310C9
:1083800000000C302004000010001000101E00003F
:108390000000004010000009000100E00DAFE00007
:1083A00004000000000000100038C80004000000B5
:1083B000000000100000000000004000000000006D
:1083C0000100000000000004000000000000100098
:1083D000000000000010000000C3008060000000EA
:1083E00010000103C00000000004008002C0000073
:1083F0001000015BAE000040000000000001000022
:108400001701004000000000000100000000000013
:1084100004000000000000100020000000004000E8
:1084200000000000010000000000000101C0000C7D
:108430003020040000800010001000000000000048
:1084400040801901F800050000400000000680008F
:108450003228000C100002EE0004001A0000000098
:10846000100000000040004000000000000100007B
:1084700000000001040000000000001000000000E7
:10848000000010000000C300804000050020000133
:10849000000000000000040108721688003000206F
:1084A0000000000040000D43D4804100002701007F
:1084B00040100000000001000014008000040000D3
:1084C000000000001000000000000040000000005C
:1084D0000001000000000000000000000C3020003F
:1084E0000000000000000000641A1040000001C1FC
:1084F00081F8000000000000000000000000000003
:10850000000000000000000000000000000000006B
:10851000000000000000000000000000000000005B
:10852000000000000000000000000000000000004B
:10853000000000C300000000000000000000020076
:10854000000000000D1A92294010000000000000F9
:1085500000000000000000000000000000200000FB
:10856000000000000000000000000000000000000B
:1085700000000000000000000000000000000000FB
:108580000000000000000000000C30218003800784
:108590006C4006000004FCDF00180051A000000041
:1085A00000000000000000000000000000000000CB
:1085B00000000000000000000000000000000000BB
:1085C00000000000000000000000000000000300A8
:1085D000000000000000000000000000000000009B
:1085E000C3000000080D69C80000000365B9D01081
:1085F000000000000000000000000000000000007B
:10860000000000000000000000000000000000006A
:10861000000000000000000000000000000000005A
:10862000000000000000000000000000000000004A
:108630000000000000000C30200001810000000458
:1086400000160200004010000000000000000000C2
:10865000000000000000000000000000000000001A
:10866000000000000000000000000000000000000A
:1086700000000000000000000000000000000000FA
:1086800000000000000000000000000000C3000027
:108690000000D000000080000264008002000000A2
:1086A00000000000000000000000000000000000CA
:1086B000000000000000002000000000000000009A
:1086C00000000000000000000000000000000000AA
:1086D0000000280000000000000000000000000072
:1086E0000000000C3020000180000000000020008D
:1086F0000000400000380000000000000000000002
:108700000000000000000000000000000000000069
:108710000000000000000000000000000000000059
:1087200000000000000000000380000000000000C6
:1087300000000000000000000000C3000000700006
:108740000000000001400C008000000088000000D4
:108750000000000000000000000000000000000019
:108760000000000000000000000000000000000009
:1087700000000000000000000000000000000000F9
:1087800000000000000000000000000001000000E8
:108790000C30200400005E7880001004035EFF00AF
:1087A0000040000000000001000000000000040084
:1087B00000000000001000000000040000000000A5
:1087C0000010000000000002400000000000010056
:1087D0000000000000040000000000001000000085
:1087E00000000010000000C300004000002B8800C3
:1087F0000100000FE2E01004000000000000100083
:108800000000000000400000000000010000000027
:1088100000600000000000010000000000000400F3
:1088200000000000001000000000000040000000F8
:10883000000001000000000000010000000C3020DA
:10884000040001800010001020040000000040001F
:108850000904F00101000000000000040000000015
:1088600000001000000000040000000000001000E4
:1088700000000000004000000000000100000000B7
:108880000000078000000000001000000000000051
:1088900010000000C300004000870020000100C25B
:1088A00040000000040000D25F80001000000000C3
:1088B0000000400000000000010000000000400037
:1088C00000000000010000000000000400000000A3
:1088D0000000100000000000004000000000000147
:1088E000000000000000010000000C302004000027
:1088F0000000900010260000004000400008000129
:108900000001000000000000040000000000001052
:108910000000000004000000000000100000000043
:108920000000400000000000010000000000000402
:108930000000000000001000000000000010000017
:1089400000C3000040000028000001006014008007
:108950000004000050020000100000000000004071
:1089600000000000000100000000004000000000C6
:1089700000010000000000000400000000000014DE
:1089800000000000000040000000000001000000A6
:10899000000000010000000C30200408000000006E
:1089A000001000045CFE000040000000090001000F
:1089B00000000000000400000000000010000000A3
:1089C0000004000000000000100000000000004053
:1089D0000000000000010000000000000400000092
:1089E0000000001000000000000010000000C300A4
:1089F0000040100000000001000236E5D000040035
:108A000000024000001000000000000040000000D4
:108A10000000010000000000400000000000010014
:108A20000000000000040000000000001000000032
:108A300000000040000000000001000000000000F5
:108A4000000000000C3020030000000000000006C1
:108A500078000000000070078000000000000000A7
:108A60000000000000000000000000000000000006
:108A700000000000000000000000000000000000F6
:108A800000000000000000000010000000000000D6
:108A90000000000000000000000000C30000000013
:108AA0000000000000000400000000000000B83FCB
:108AB000C0200000000000000000000000000000D6
:108AC00000000000000000000000000000000000A6
:108AD0000000000000000000000000000000000096
:108AE0000000000000000000000000000000000086
:108AF000000C302180001900000006000062000018
:108B000040180019A065F00160000000000000009E
:108B10000000000000000140000000000000000014
:108B20000000000000000000000000000000000045
:108B30000000000000000000000000000000000035
:108B40000000000000000000C300000000800000E2
:108B5000000003C02400800000000A576F000000DE
:108B600000000000000000000000000000080000FD
:108B700000000000000000000000000000000000F5
:108B800000000000000000000000000000280000BD
:108B900000000000000000000000000000000C3099
:108BA000200007800000000000000000000010000E
:108BB0008000000000000000000000000000000035
:108BC00000000000000000000000000000000000A5
:108BD0000000000000000000000000000000000095
:108BE0000000000000000000000000000000000085
:108BF0000000000000C30000000000000000008032
:108C00000000000002000100000000000000000061
:108C10000000000000000000000000000000000054
:108C20000000000000000000000000000000000044
:108C30000000000000000000000001000000000033
:108C400000000000000000000000000C30200000C8
:108C50000000000000002000000000000080A38051
:108C6000F001000000000000000000000000000013
:108C700000000000000000000000000000000000F4
:108C800000000000000000000000000000000000E4
:108C900000000000000000000000000000000000D4
:108CA0000000C300000000000000000001C0000040
:108CB0000000000500522F400000000000000000EE
:108CC00000000000000000000000000000000000A4
:108CD0000000000000000000000000000000000094
:108CE0000100000000000000000000000000000083
:108CF00000000000000000000C3020100000000008
:108D0000000000000209E2000000000580010000F0
:108D10000000000000000000000000000000000053
:108D20000000000000000000000000000000000043
:108D30000000000000000000000000000000000033
:108D4000000000000000000000000000000000C360
:108D5000000080000000000000000005ED10000091
:108D6000000A0001000000000000000000000000F8
:108D700000000000000000000000000000000000F3
:108D800000000000000000000000000000000000E3
:108D900000000000000000000000000000000000D3
:108DA00000000000000C3020000000000000000067
:108DB0000002000040000081880001000000000067
:108DC00000000000000000000000000000000000A3
:108DD000000000000000000000000000000004008F
:108DE000000000000800000000000000000000007B
:108DF000000000000000000000000000C3000000B0
:108E000000800000000000001C00800000010090B5
:108E10000200000000000000000000000000000050
:108E20000000000000000000000000000000000042
:108E300000000000000000000000004000000000F2
:108E40000000000000000000000000000000000022
:108E500000000C3020000000862C400020000000A4
:108E60000000000000000000000000001E000600DE
:108E700000000000000000000000000000000000F2
:108E800000000000000000000000000000000000E2
:108E900000000000000000000000000000000000D2
:108EA000000000000000000000C3000100000B698A
:108EB000C8000000000000000000000000000000EA
:108EC0000000000004180000000000000000200066
:108ED0000000000000000000000000000000000092
:108EE0000000000000000000000000000000000082
:108EF0000000000000000000000000000000000C66
:108F000030200000000604100000260061810000EF
:108F100000000B6FFC0000000000000000000000DB
:108F20000000000000000000000000000000000041
:108F30000000000000000000000000000000000031
:108F40000000000000000000000000000000000021
:108F5000000000000000C30000000000400000000E
:108F6000004004ADB00000000AFE0740000004000D
:108F700000000000000000000000000000000000F1
:108F800000000000000000000000000000000000E1
:108F900000000000000000000000000000000000D1
:108FA0000000000000000000000000000C30200065
:108FB000000000000000002000000000000400008D
:108FC000000000040000400000000000000000005D
:108FD00000010020082000001900402000000000CF
:108FE0000000000000000000000000000000000081
:108FF0000000000000000000000000000000000071
:10900000000000C300000000000000000000C000DD
:1090100000000000000000000000A0002000000090
:10902000000000000000000100001D04800000801E
:109030002000080000000000000000000000000008
:109040000000000000000000000000000000000020
:109050000000000000000000000C302180000180B2
:1090600000100000000000000000000000000000F0
:109070006000000000000000000000000006003E4C
:10908000000C2580051800402000000000000000B2
:10909000000000000000000000000000000180004F
:1090A00000000012000000000000000000000000AE
:1090B000C300000000CD0020000000000000000000
:1090C00000000000000000000000000000000000A0
:1090D000000000000003E3ED010000D800200000C4
:1090E0000000000000000000000000000000000080
:1090F000000000000000000F002000000000000041
:109100000000000000000C30210000000000000002
:1091100000366D405A200000000000000004E0000E
:1091200000E1068000000000000004000022083179
:10913000080000020CF81000000000000000000011
:10914000000000000000000000000300000000001C
:1091500012000000000000000000000000C300201A
:1091600000000000000000824344BE7000000000C8
:1091700000000000200000000008002000000000A7
:1091800000C020040D01A0000000273100000000F5
:1091900000000000000000000000000000000000CF
:1091A000003000900B0020000000000000000000D4
:1091B0000000000C3020000000180010000000012A
:1091C000403C0000000000000000000140000000E2
:1091D0000000500000000000015C040A30000000A4
:1091E000020CF80000000000000000000000000079
:1091F000000000000000000000000000000000006F
:1092000000000000000000000000C300000000A0FB
:1092100080100000000014BBD2000000000000001D
:1092200000000200000000000200000000000068D2
:10923000235D0480000000273100000000000000D2
:10924000000000000000000001000000000000001D
:10925000000000000000000000000000000400000A
:109260000C302000000000000000000000000000A2
:1092700000000000000000000000000000000020CE
:10928000000000000000003A08840000007A0CF0A2
:1092900010000000000000000000000000000000BE
:1092A000000000000000000A0000000000000000B4
:1092B00000000000000000C30000000000000000EB
:1092C000000000000000000000000000000000009E
:1092D000000000000105000000000002000645013A
:1092E000800000000331200000000000000010009A
:1092F0000000000000000000000000000000A000CE
:10930000000000000000000000000000000C302001
:10931000000000000000000000000000000000004D
:1093200000000000000000400000000050000000AD
:1093300000000000020A340000017A0CF80000006E
:10934000000000000000000000000000000000001D
:10935000000000000000009000400000000000003D
:1093600000000000C300000000000000000000003A
:1093700000000000000000000000000000200000CD
:1093800000000200000000000003C0050080001083
:1093900080033120000000000000000000000000F9
:1093A0000000000000000000000000002800200273
:1093B000000000000000000000000C302000000051
:1093C000000000000000000000000000000000009D
:1093D000000402002005A6000800000000000000B4
:1093E0001E020830000000024CF8100000000000CF
:1093F000000000000000000000000000000000006D
:10940000101E00000000000000000000000000002E
:1094100000C3000000000000000000000000000089
:109420000000000000000000202402C0A5084180C8
:1094300000000000000003C025018000000037315B
:10944000000000000000000000000000000000001C
:10945000000000000000000190000000000000007B
:10946000000000000000000C3020000000000000A0
:1094700000000000000000000000000000004000AC
:10948000000405A010285000000000040000020C99
:1094900017000980024CF8000000000000000000E6
:1094A00000000000000000000000000003000000B9
:1094B0000018000000000000000000000000C300D1
:1094C000000000000000000000000000000000009C
:1094D000000000000C000000205A00010200000003
:1094E0000000C0000035089008100027310400007B
:1094F000000000000000000000000000000000006C
:1095000000000000000B0020000000000000000030
:10951000000000000C3020000000000000000000EF
:10952000000000000000000000000000000000003B
:109530000000000018000000000000001E280008C5
:109540000A020CD20000000000000000020000002F
:10955000000000000000000000000000000000000B
:109560000000640000800000000000C30000000054
:1095700000000000000000000000000000000000EB
:1095800000000000000000000000000000000000DB
:109590000000000480001000233150004000000053
:1095A000000000500000000000000000000000006B
:1095B00000000000000000000340A00020000000A8
:1095C000000C30200000000000000000000000003F
:1095D000000000000000000000000000000001800A
:1095E00000000000000E2000001C0180050A7E41E2
:1095F000000000000000000000000000000000006B
:1096000000000000000180000000000006000000D3
:109610000000800000000000C30000000000000007
:10962000000000000000000000000000000000003A
:109630000000000000000000000000000000000129
:1096400000000200A97800000000000000000000F7
:10965000000000000000000000000000000000000A
:1096600000000000000000A00000000000000C301E
:1096700020000000000000000000000000000000CA
:1096800000000000000000000000000100080102CE
:1096900084100C0000001E010000001EA00000004D
:1096A00000000000000000000000000000000000BA
:1096B000000000000000000000040014000833C097
:1096C0000000000000C300000000000000000000D7
:1096D000000000000000000000000000000000008A
:1096E0000000200070800000004000000000200109
:1096F00000A72000000000000000000000000000A3
:109700000000000000000000000000000000000059
:1097100040036000DCC000000000000C30200000AE
:109720000000000000000000000000000000000039
:10973000000000000000000000001F805800100022
:109740000140001C00000700831010000000000012
:109750000000000000000000000000000000000009
:10976000000000000000000000000833400000007E
:109770000000C30000000000000000000000000026
:1097800000000000000000000000000000000000D9
:109790000218000010000000000100000058096ECF
:1097A00001040000000000000000000000000000B4
:1097B00000000000000000000000000000000000A9
:1097C000240CC000000000000C302000000000004D
:1097D0000000000000000000000000000000000089
:1097E000000000000000000000070410000000045A
:1097F0001E000000010783D00000000000000000F0
:109800000000000000000000000000000000000058
:10981000000000000000040000000000000000C381
:109820000000000000000000000000000000000038
:109830000000000000000000000000000008000020
:10984000000000000003000000000080003D200038
:109850000000000000000000000000000000000008
:1098600000000000000000000000000002000000F6
:1098700000000000000C302000000000000000008C
:109880000000000000000000000000000000001EBA
:1098900005A000000700004098000000001C000028
:1098A0000000784CD810008000000000000000008C
:1098B00000000000000000000000000000000000A8
:1098C000000000000000000000000000C3000000D5
:1098D0000000000000000000000000000000000088
:1098E000000000000000205A000000000028004195
:1098F0000000020100000000003B310000000000F9
:109900000000000000000000000000000000000057
:109910000000000000000000000000000000000047
:1099200000000C30200000000000000000000000DB
:109930000000000000000000000000000000000027
:10994000000000500010100000001E000001800008
:109950000000000000000000000000000000000007
:109960000000000000000000000070001020000057
:10997000000000000000000000C300000000000024
:1099800000000000000000000000000000000000D7
:109990000000000000000000000080100200000035
:1099A00000000000000000000000000000000000B7
:1099B00000000000000000000000000000000000A7
:1099C000F080100000A00000000000000000000C6B
:1099D0003020000000000000000000000000000037
:1099E0000000000000000000020000000000000075
:1099F0000000980CA004001C010049800000000039
:109A00000000000000000000000000000000000056
:109A1000000000000000000000000C000E0000002C
:109A2000000000000000C300000000000000000073
:109A300000000000000000000000000000000040E6
:109A400000000000000000240001C0A04001003020
:109A500000100000000000000000000000000000F6
:109A600000000000000000000000000000000000F6
:109A700000C0002000000000000000000C302000AA
:109A800000000000000000000000000000000000D6
:109A90000000000000000000000000080078001036
:109AA000100000060C00000000580010000000002C
:109AB0000000000000000000000000200000000086
:109AC00000000019D62200000046040033480000C0
:109AD000000000C3000000000000000000000000C3
