:1040000000000320F1770000677800006B78000063
:104010006778000067780000677800000000000003
:1040200000000000000000000000000067780000B1
:1040300067780000000000006778000067780000E3
:1040400067780000677800006778000067780000F4
:1040500067780000677800006778000067780000E4
:1040600067780000677800006778000067780000D4
:1040700067780000677800006778000067780000C4
:1040800067780000677800006778000067780000B4
:1040900067780000677800006778000067780000A4
:1040A0006778000067780000677800006778000094
:1040B0006778000067780000677800006778000084
:1040C0006778000067780000677800006778000074
:1040D0006778000067780000677800006778000064
:1040E0006778000067780000000000000000000012
:1040F0000000000067780000677800006778000023
:104100006778000067780000677800006778000033
:104110006778000067780000677800006778000023
:104120006778000067780000677800006778000013
:104130006778000067780000677800006778000003
:1041400067780000677800006778000067780000F3
:1041500067780000677800000000000000000000A1
:10416000000000000000000000000000000000004F
:10417000000000000000000000000000000000003F
:1041800067780000677800006778000067780000B3
:104190000000000067780000677800006778000082
:1041A0006778000067780000677800006778000093
:1041B0006778000067780000677800006778000083
:1041C0006778000067780000677800006778000073
:1041D0006778000000000000000000000000000000
:1041E00000000000000000000000000067780000F0
:1041F0006778000067780000677800000000000022
:1042000000000000000000000000000067780000CF
:104210006778000067780000677800006778000022
:104220006778000067780000677800006778000012
:104230006778000067780000677800006778000002
:1042400000000000677800006778000067780000D1
:1042500067780000000000006778000067780000C1
:1042600070477047704770B50C460846022102F04F
:1042700089FA48F22005C4F20015286840070CD4DA
:1042800000262046012102F07DFA01362868F1B2AD
:10429000632902D810F00400F3D020460221BDE8C3
:1042A000704002F06FBAD4D4F0B503AFADF5735DD2
:1042B00083B06C466FF30304A54600F029FF002885
:1042C00000F0998400F045FF002800F094840DF17F
:1042D0003C0E0CAC0EF57251009120460A460B467E
:1042E00001F055FE204602F009FA1B9001F006FE8F
:1042F0001BA8642102F00CFA204601F021FF8DF882
:10430000741001211C9001200090204604220723F4
:1043100001F01AFFC8B20C2800F06D840DF13C0EBC
:104320000EF57254204602F05DFAC17A0C2262F357
:104330001F11C172204602F04BFAC17D41F001010C
:10434000C175204602F021FA4FF40058C0F80080F1
:10435000204602F024FA00264673204602F015FAA1
:104360004FF40049C0F80090204602F018FAC673D6
:10437000204602F00AFA4FF480450560204602F01C
:104380000EFA867348F21400C4F200101CA9C0F89B
:104390000480C0F8049045600CA801F036FF0028A6
:1043A00000F0298448F200701E91C0F2933002F0B0
:1043B0009DFC0546204602F0FCF9C178032666F311
:1043C0001F11C170204602F0EAF9C17941F00101E4
:1043D000C171204602F0EDF9817801F0F00103315E
:1043E0008170204602F0DBF9017941F00101017191
:1043F000204602F0DEF9817866F31F1181702046B5
:1044000002F0CDF941790022002341F00101417110
:104410001EA82946009400F0BDFE204602F0B5F922
:104420004FF0400AC0F800A0204602F0B8F94FF063
:10443000020880F80680204602F0C0F94FF4007BA5
:10444000C0F800B0204602F0C3F980F80980204689
:1044500000F0FCFB204600F009FC204600F017FCB1
:104460000CA81CA901F0ECFE002800F0C48342F661
:1044700000501F91C0F2311002F038FC0546204672
:1044800002F097F9417A68F31F114172204602F059
:1044900086F9C17C41F00101C174204602F089F91E
:1044A000017A01F0F00102310172204602F077F941
:1044B000017C41F001010174204602F07AF9017A91
:1044C00068F31F110172204602F069F9417C002255
:1044D000002341F0010141741FA82946009400F017
:1044E000D6FE204602F051F94FF48029C0F8009022
:1044F000204602F054F91BAD48F2140680F81280F1
:10450000C4F2001628460221C6F880B0C6F800A002
:1045100002F004F928460421C6F884B002F0FEF83F
:1045200028460A21C6F8049002F0F8F828460A2125
:10453000C6F8009002F0F2F82046FF2100F055FF87
:10454000C0B2022802D0C007F6D122E30DF13C0E22
:104550000EF572540DF10C0E0EF56A59204600212D
:1045600000F043FFC0B2022802D0C007F6D110E32A
:104570001BA80A2102F0D2F84FF480204FF45851C2
:10458000706020A803F031F90DF55A54204600F070
:1045900062FC0DF1300E0EF56A55284600F05BFC0A
:1045A00004F5007029464FF4007203F0AEF80DF1E7
:1045B000300E23460EF56A500DF13C0E0EF5725189
:1045C0000A4602F06BF80DF5405E9EF8B00A01282D
:1045D00000F027830DF1300ED9F828000EF56A544B
:1045E0000DF10C0E0EF56A510DF55A53C9F8000085
:1045F000204600224FF0000801F03DFE0DF5405E20
:104600009EF8B00A012800F00C83201D0DF1100E59
:104610000EF56A551CC829461CC190E85C000120B3
:104620005CC147F6341443F22802C0F20004CDE91D
:104630000080C4F20002284621464CF64D33CDE9F5
:104640000288CDF8108001F0BBFE2846052101F05C
:104650008DFE2846012101F0A5FE284601F053FEFB
:10466000C0B2082840F0CE820DF1100E48F21408B6
:104670000EF56A55C4F20018284601F087FF00289D
:10468000FAD0284601F092FF0028F5D10DF1100E66
:104690004CF64D3021180EF56A5400224CF64D337D
:1046A000204601F011FF204601F02DFEC0B208287F
:1046B00040F0A8820DF1100E0EF56A54204601F06C
:1046C00065FF0028FAD0204601F070FF0028F5D1E0
:1046D0000DF1100E47F634110EF56A54C0F20001C8
:1046E00000226423204601F0EFFE204601F00BFE7D
:1046F000C0B2082840F086820DF1100E0EF56A5403
:10470000204601F043FF0028FAD0204601F04EFF7A
:104710000028F5D10CA81CA901F05CFD002800F0D0
:104720006A820DF12C0EC9F820100EF56A500DF1B9
:104730003C0E0EF57254214602F075F9C9F82400BA
:104740003C2002F0D3FA0DF1300E01460EF56A500E
:1047500001F0A8F840200121C8F804004FF480209F
:10476000C8F800001BA801F0D9FF2046402100F046
:104770003CFEC0B2022802D0C007F6D109E20DF11A
:104780003C0E0EF5725420462B2100F02EFEC0B2D6
:10479000022802D0C007F6D1FBE11BAC0121204664
:1047A00001F0BCFF4FF4802520460121C8F80450D9
:1047B00001F0B4FF20460121C8F8005001F0AEFF1F
:1047C0000DF13C0E0EF5725420467E2100F00DFED8
:1047D000C0B2022802D0C007F6D1DAE10DF13C0EDA
:1047E0000EF572542046122100F0FFFDC0B20228DF
:1047F00002D0C007F6D1CCE11BAC0121204601F06C
:104800008DFF4FF48020C821C8F80400204601F035
:1048100085FF0DF1300E00200EF56A590DF13C0EAA
:104820000EF572560DF1100E0EF56A550A90002025
:104830000B90484602F0F3F8817AC907F9D0817AE3
:1048400041F0010181724FF48020C8F80000304629
:10485000922100F0CAFDC0B2022805D0C007F6D1EF
:1048600097E1C00700F095813046002100F0BDFDC2
:10487000C0B20228F5D1304600F0A7FD8B46C00734
:1048800040F0B0813046002100F0AFFDC0B20228F8
:1048900002D0C007F6D17CE1304600F096FD8A4692
:1048A000C00740F096813046002100F09EFDC0B266
:1048B000022802D0C007F6D16BE1304600F085FD3A
:1048C0008946C00740F088813046002100F08DFD08
:1048D000C0B2022802D0C007F6D15AE1304600F03B
:1048E00074FD0C46C00740F071813046002100F095
:1048F0007CFDC0B2022802D0C007F6D149E1504683
:10490000A2460990304600F060FD0C46C00740F01A
:104910005D813046002100F068FDC0B2022802D05F
:10492000C007F6D135E1304600F04FFDC00740F03A
:1049300056814FF48020C8F804000B98C0B20628B6
:1049400018D8E2B2099C42EA01215FFA89F242EAF0
:104950000A235FFA8BF242EA0422DFE800F0041730
:104960000B1D1123290020A800914FF4585100F08D
:10497000BBFE23E020A84FF4585101F049F81DE098
:1049800020A84FF4585101F0D1F817E020A84FF4B7
:10499000585100F0E8F911E020A84FF4585100F008
:1049A00035FD0BE020A84FF4585101F075F905E0F2
:1049B00020A800914FF4585100F0F6FD0DF1800948
:1049C0000DF16C0A4FF4004000244FF0400BC8F882
:1049D000080030465146FFF746FC50460121C8F812
:1049E00000B001F0CFFE04F10108CB463046802133
:1049F00000F0DAFCC0B2022802D0C007F6D1C8E04D
:104A00002846594600224FF4907301F05DFD284678
:104A100001F079FCC0B2082840F0CB80284601F0B4
:104A2000B5FD0028FAD0284601F0C0FD0028F5D1D8
:104A300048F214091BA80821C4F200194FF0400ADB
:104A4000C9F804A001F09EFEC9F800A00DF16C0A9F
:104A50000121504601F096FE0BF5907B3046032174
:104A600000F0A2FCC0B2022802D0C007F6D190E04C
:104A7000E0B2172888BF08343046214600F094FC85
:104A8000C0B2022802D0C007F6D182E05046012110
:104A9000D94601F077FE48F214004FF0400BC4F203
:104AA000001044468046C0F804B05046052101F08D
:104AB00069FE30465146FFF7D6FBE0B23028FFF4DE
:104AC00088AF5046052101F05AFE0DF1300EC8F8AE
:104AD00000B00EF56A594FF0400B3046042100F04B
:104AE00063FCC0B2022804D0C007F6D151E0C00771
:104AF0004FD03046002100F057FCC0B20228F6D15A
:104B00000DF16C0AC8F800B0C8F800B0C8F804B0DD
:104B1000C8F800B03046002100F046FCC0B20228C0
:104B200004D0C007F6D134E0E00732D0304600F0C0
:104B30002BFC0C46C007F7D101E0C00729D0304656
:104B4000002100F031FCC0B20228F6D1504601210C
:104B500001F018FEA007C8F804B0D9D4D8F88C002A
:104B60000A9A110609D10B9910F4800006D101317F
:104B7000C8B2042888BF002100E00B990B91D8F837
:104B80008C00C0F3805040EA420080F001000A909F
:104B90004FE647F6D80047F61413C0F20000C0F203
:104BA00000030DF13C0E0EF572522B2102F09FF91D
:104BB000FEDE0DF5405E47F60413C0F200038EF8EA
:104BC000BC0C47F6D800C0F20000EAE704F0010090
:104BD0000AE00AF0010007E009F0010004E001F03A
:104BE000010001E00BF001000DF5405E47F62413D3
:104BF000C0F20003E3E747F6C000C0F2000002F095
:104C00001FF9FEDE0DF5405E47F60413C0F2000307
:104C10008EF8B00A47F6D8000DF1300EC0F2000051
:104C200011E00DF5405E47F60413C0F200039EF854
:104C3000B10A0DF5405E8EF8900A47F6D800C0F232
:104C400000000DF1100E0EF56A52AEE7B0B5044645
:104C500001F0A0FD04250560204601F0A0FD06211D
:104C60008170204601F0A0FD0560B0BDB0B50446DE
:104C700001F0A9FD4FF480750560204601F0A8FD04
:104C800006210172204601F0A8FD0560B0BDB0B557
:104C9000044601F098FD4FF480050560204601F0C0
:104CA00097FD06218175204601F097FD0560B0BD96
:104CB00010B520F07F42140C120A130636D04BF6C2
:104CC0008361C3B2C2F6A0715FFA82FCA3FB011339
:104CD000D2436FF02A01D2B26243DB08042B03FBFC
:104CE00001004FEA122E00EB40004FEA4001C9B22A
:104CF0000CFB01F181F47F414FEA112104FB01F12A
:104D00004FEA11222AD86FEA4000C0B20CFB00F033
:104D100080F47F40000A60434FEA102CDFE803F084
:104D2000030C12171C007246E64617E04FF6FF719F
:104D300088432044210214E02046714614468646EA
:104D40000A460BE0204674468646624606E0204648
:104D500074469646024601E02246644644EA0E2026
:104D60001104084310BD2DE9F04F83B0834640F293
:104D70001000C2F200008A460578691C017000200C
:104D8000302101F0FFFF8842019132D2814601209B
:104D90004F4602F042F819EB00092AD200206021A8
:104DA00001F0F0FF884221D204460E46012002F0B5
:104DB00034F814EB000819D248F2FF0105EB940017
:104DC000C0F2FF0161F31F20FFF772FFADF808008A
:104DD000000C8DF80A0002A8009058465146224661
:104DE0003B4600F009F8B0454446DFD301988145C1
:104DF000CDD303B0BDE8F08F80B58C4603EB430103
:104E000002EB411101EB4101614519D2DDF808E0E7
:104E10009EF8003043544B1C634516D202319EF875
:104E200001206145C2543EBF9EF80220425480BD1D
:104E300041F20C00C0F20200624602F020F8FEDEF1
:104E400040F6EC70C0F20200F6E740F6FC7019463E
:104E5000C0F20200F0E72DE9F04F03AFADF51F7D82
:104E60006C466FF30304A54604461CA81B9001F092
:104E70003EFF20A81A9001F03AFF24A8199001F0F3
:104E800036FF28A8189001F032FF2CA8179001F0E7
:104E90002EFF30A8169001F02AFF34A8159001F0DB
:104EA00026FF38A8149001F022FF3CA8139001F0CF
:104EB0001EFF40A8129001F01AFF44A8119001F0C3
:104EC00016FF48A8109001F012FF4CA80F9001F0B7
:104ED0000EFF50A80E9001F00AFF54A80D9001F0AB
:104EE00006FF58A80C9001F002FF5CA80B9001F09F
:104EF000FEFE60A80A9001F0FAFE64A8099001F095
:104F0000F6FE68A8089001F0F2FE6CA8079001F088
:104F1000EEFE70A8069001F0EAFE74A8059001F07C
:104F2000E6FE78A8049001F0E2FE7CA8039001F070
:104F3000DEFE80A8029001F0DAFE84A8019001F064
:104F4000D6FE88A8009001F0D2FE0DF50C7A5046EE
:104F500001F0CDFE0DF5107B584601F0C8FE0DF5B1
:104F60001478404601F0C3FE0DF51879484601F06B
:104F7000BEFE1B9E204696E82E002EC004F11000B7
:104F80001A9E96E82E002EC004F12000199E96E885
:104F90002E002EC004F13000189E96E82E002EC080
:104FA00004F14000179E96E82E002EC004F1500038
:104FB000169E96E82E002EC004F16000159E96E81D
:104FC0002E002EC004F17000149E96E82E002EC014
:104FD00004F18000139E96E82E002EC004F190008C
:104FE000129E96E82E002EC004F1A000119E96E8B5
:104FF0002E002EC004F1B000109E96E82E002EC0A8
:1050000004F1C0000F9E96E82E002EC004F1D000DF
:105010000E9E96E82E002EC004F1E0000D9E96E84C
:105020002E002EC004F1F0000C9E96E82E002EC03B
:1050300004F580700B9E96E82E002EC004F5887053
:105040000A9E96E82E002EC004F59070099E96E800
:105050002E002EC004F59870089E96E82E002EC0F3
:1050600004F5A070079E96E82E002EC004F5A870E7
:10507000069E96E82E002EC004F5B070059E96E8B8
:105080002E002EC004F5B870049E96E82E002EC0A7
:1050900004F5C070039E96E82E002EC004F5C8707B
:1050A000029E96E82E002EC004F5D070019E96E870
:1050B0002E002EC004F5D870009E96E82E002EC05B
:1050C00004F5E0709AE82E002EC004F5E8709BE825
:1050D0002E002EC004F5F07098E84E004EC004F586
:1050E000F870A7F10C0499E84E004EC0A546BDE843
:1050F000F08F0278012A1CBF013001F0FEBD41F2A1
:105100001C020846C0F2020211460A2202F0DCB973
:1051100010B582B001F086FE00F001008DF80700A6
:1051200001F07CFE01F081FE41F23620C2F2000067
:10513000007808B1002402E001F01CFE01240DF10A
:10514000070001F065FE08B101F06AFE204602B0DA
:1051500010BD10B582B001F065FE00F001008DF8C1
:10516000070001F05BFE01F060FE41F23720C2F261
:105170000000007808B1002402E001F038FE0124AC
:105180000DF1070001F044FE08B101F049FE204690
:1051900002B010BD2DE9F04182B00746089898464C
:1051A00015460E4601F0C3FD416901AC41F4805142
:1051B0004161204601F0CFFD016841F0010101602D
:1051C000204601F0C8FDC069C007F9D1204601F0B2
:1051D000C2FD0068C007F3D101AC204601F0BBFD61
:1051E0000168032262F384010160204601F0B3FDEF
:1051F000C0698007F9D401A801F0ADFD416841F410
:10520000003121F007014160384600F0DFFF002146
:10521000B1EB460F34D0710001AEB0FBF1F4304673
:1052200001F099FD017B611E0173304601F093FD91
:105230000168002D21F0005218BF41F000524FF6D6
:10524000FF71CAF6CC7102EA010301F18051B8F195
:10525000000F18BF42F08053194001F54011016062
:10526000304601F078FD016841F0020101603046EE
:1052700001F071FDC0698007F9D402B0BDE8F0818A
:1052800041F28C00C0F2020001F0DAFDFEDE2DE9F1
:10529000F04182B007460898984615460E4601F040
:1052A00046FD416901AC41F400514161204601F0E5
:1052B00057FD016841F001010160204601F050FDF9
:1052C000C069C007F9D1204601F04AFD0068C00757
:1052D000F3D101AC204601F043FD0168032262F3E3
:1052E00084010160204601F03BFDC0698007F9D4CC
:1052F00001A801F035FD416841F4003121F00701BA
:105300004160384600F064FF0021B1EB460F34D015
:10531000710001AEB0FBF1F4304601F021FD017BDC
:10532000611E0173304601F01BFD0168002D21F064
:10533000005218BF41F000524FF6FF71CAF6CC710F
:1053400002EA010301F18051B8F1000F18BF42F0E9
:105350008053194001F540110160304601F000FD15
:10536000016841F002010160304601F0F9FCC069BA
:105370008007F9D402B0BDE8F08141F28C00C0F2A0
:10538000020001F05DFDFEDE10B5044601F0E3FC15
:10539000007E400702D40120012110BD204601F00B
:1053A000DAFC816A002010BDB0B50C46054601F05C
:1053B000D2FC007EC00701D10120B0BD284601F01B
:1053C000CAFCE1B281620220B0BD10B5044601F012
:1053D000C7FC007E400702D40120012110BD2046F9
:1053E00001F0BEFC816A002010BDB0B50C46054638
:1053F00001F0B6FC007EC00701D10120B0BD2846F7
:1054000001F0AEFCE1B281620220B0BD2DE9F04FA7
:1054100083B08A4683460020602101F0B3FC8842B5
:10542000019155D240F2000906460027C2F2000958
:10543000012001F0F2FC80194AD2029000203021B4
:1054400001F0A0FC88423FD280460C46012001F0CA
:10545000E4FC18EB000537D2780A082800F28980AE
:1054600040F21100C2F20000C05D40B1013000F016
:105470000F0040F21101C2F20001C8550FE099E897
:105480000F0089E80E0080EAC02080EA1020584012
:1054900080EAD340C9F80C00C00513D0002041F2C7
:1054A000DC0100EB4000C0F20201084400905846C5
:1054B000514632464346FFF79FFC0137A542A846B6
:1054C000C4D301E00120D4E7DDE901068642AFD371
:1054D00000202F21002401F055FC88422BD240F2FD
:1054E0001105814688460024C2F20005012001F022
:1054F00094FC19EB00091ED20020602101F042FC4F
:10550000884216D207460E46012001F086FC3F185D
:105510000FD204F13001480A082830D8600A082860
:1055200032D82819B74290F83000285504F1010408
:10553000EAD3C145DAD3002060214FF0000801F022
:1055400021FC884212D240F2110705460E46C2F2F3
:105550000007012001F061FC2D1807D2600A08281D
:105560001CD807F804800134B542F2D303B0BDE87B
:10557000F08F41F2CC003946C0F2020009E041F25E
:105580000C10C0F2020004E041F21C10C0F2020054
:1055900021464FF4905201F072FCFEDE41F22C10D5
:1055A000C0F20200F4E7D4D42DE9F04F81B02DED24
:1055B000068B84B0174641F21822C2F200028346DD
:1055C000168841F21420178041F22022C2F2000214
:1055D000C2F2000015888A461380BA1B016816B211
:1055E000C6F30276164402F57A6236B292B2F6102B
:1055F000B2F5FA5F88BF002631440160581B41F2C2
:105600001C22C2F2000201B21468C1F3027101440B
:1056100000F57A6009B280B2C910B0F5FA5F88BFB0
:105620000021601810600020302101F0ABFB88429F
:10563000029151D281461498B6EE00AA9FED298AB4
:1056400001B2C1F30661084439B2C1F306613944BD
:1056500080B209B2C91100EE101A082141EAD01037
:10566000B8EEC09A050401204F4601F0D6FB19EBB5
:10567000000931D20020602101F084FB884228D249
:1056800080460E46012001F0C8FB18EB000420D232
:10569000B0EE480A00F0EEFB30EE0A0A20EE090AEE
:1056A000BDEEC00A10EE100A284340F43440FFF764
:1056B000FFFAADF80C00000C8DF80E0003A8009066
:1056C0005846514642463B46FFF796FBB442A04639
:1056D000D8D302988145C6D304B0BDEC068B01B087
:1056E000BDE8F08F0000C0422DE9F04F81B02DEDF4
:1056F000108B84B0054610B200EE100A9FED5F1AC1
:1057000041F2242041F22C22B8EEC00AC2F200007D
:1057100090ED008AC2F200028A4641F228211788E1
:10572000C2F200010E6880EE010A30EE080A9FED19
:10573000541AB5EEC00AF1EE10FA48BFB0EE410AB5
:105740001380DA1B02F57A639BB2B3F5FA5F88BF68
:10575000002280ED000A06FA82F20A600020302161
:1057600001F010FB8842029180F08280BDEEC80AF1
:105770009FED451AF3EE008A9FED44DA9FED44EA6F
:105780000DF10C0B9FED43FA8146DFED439ADFEDFF
:1057900043AADFED43BAB8EE40CA9FED3A0A8CEE59
:1057A000008A8CEE019A01204F4601F036FB19EB7E
:1057B00000095DD20020602101F0E4FA884254D251
:1057C00000EE107A04460E46F8EE40CA012001F0C1
:1057D00024FB14EB000848D200EE104AB8EE40AAB1
:1057E000B0EE490A00F046FB20EE0A0A30EE000A4D
:1057F00030EE0C0A30EE0DAAB0EE480A00F0FCFACA
:1058000000EE2CAA3AEE0E0A80EE0FAAB0EE4A0A7B
:1058100000F030FBB0EE40BA2AEE280A00F02AFB76
:10582000B0EE6B1A20EE290A0BEE2A1ABDEEC00A62
:10583000BDEEC11A10EE100A11EE101A413041EA05
:10584000004000F57F40FFF733FAADF80C00000C84
:105850008DF80E002846514622463B46CDF800B052
:10586000FFF7CAFAB0454446B0D3029881459AD3AF
:1058700004B0BDEC108B01B0BDE8F08F0000FA441D
:105880000000FA46000048430000164366660640E2
:10589000CDCC8C3F00002042000080420000FC4242
:1058A0000000014370B58CB003680122009101290A
:1058B00098BF1146B3FBF1F10023B3EB114F12D0A7
:1058C0000A0C4FF0FF33B2FA82F24FF48064D340F7
:1058D0005A1C3E2B3EDC1F2B06D8012648F28B05B6
:1058E0009E402E4261D01446B1FBF4F5B5F5803FE1
:1058F000019565D201F093F8016821F00201016081
:10590000C17A0907FCD401210160C17A0907FCD4DE
:105910000168C907FCD10021A2B241710F2A858319
:10592000017B01F0FC0101F10101017301680BDC55
:10593000013A072A3DD8DFE802F0042E3C303C3C17
:105940003C2C21F4E0612BE0FF2A0CDC102A16D15C
:10595000042223E0FE2B0BDC3F2BC4D07F2B08BF9F
:105960004FF48074C0E7B2F5807F0CD1062215E0B9
:1059700040F2FF36B34214BFFF2B1446B4E7402A6F
:1059800017D105220AE0B2F5806F12D141F4E0612F
:1059900006E0032202E0012200E0022262F30A2173
:1059A00041F0020101600CB070BD1F2B08BF402404
:1059B0009AE741F29810C0F2020001F041FAFEDECF
:1059C00047F2EB5401A8C0F20004214601F0D9F9D6
:1059D00005460E466846214601F0D3F9CDE90A0195
:1059E0000220079008A806900020CDE904000320BB
:1059F000039041F2E810C0F2020041F2002102904F
:105A000002A8C0F20201CDE9085601F058FAFEDE04
:105A10002DE9F04F81B02DED028B8AB0CDE9060162
:105A200041F22E20C2F20000B4EE000A0288059274
:105A3000511C8AB201EE102A41F23022C2F2000259
:105A4000B8EE411A13880180581C81B2103918BF72
:105A50000146118021EE000A00F00CFAB2EE001AA5
:105A60000020B2EE012A302100EE012ABDEEC28AEA
:105A700001F088F98842039151D218EE108A074646
:105A80004FF600700599C0F2200000F5C0090143EF
:105A90000291012001F0C1F9C01940D20490002008
:105AA000602101F06FF9884235D207F00F0B0446F0
:105AB0000E46012001F0B1F914EB000A2BD2C345C8
:105AC0001CBF04F00F0040451CD1059808AD00EB49
:105AD0009400C1B2FF2908BF013080F08000C0B23D
:105AE00040EA0900FFF7E4F82880000CA87022467D
:105AF000DDE906013B460095FFF77EF9B2455446C5
:105B0000D7D308E0E0190F2121EA00004045DCD09E
:105B100009AD0298E6E7DDE903078742B9D30AB089
:105B2000BDEC028B01B0BDE8F08FD4D42DE9F04F6D
:105B300081B02DED108B84B0054641F23220C2F2C7
:105B400000008A460488611C01800020302101F099
:105B500019F98842029180F08A8000EE104A9FED88
:105B6000481AB1EE00CA9FED47DAB8EE40BA9FED91
:105B7000430AB6EE00FA9FED44EAF3EE008ADFED49
:105B800043AAF0EE009ADFED42BADFED42CA0DF112
:105B90000C0B81468BEE008A8BEE019A01204F465A
:105BA00001F03BF919EB000961D20020602101F0FE
:105BB000E9F8884258D200EE107A04460E46F8EE14
:105BC00040DA012001F029F914EB00084CD200EE74
:105BD000104AB8EE40AAB0EE490A00F04BF920EEA8
:105BE0000A0AB0EE4BAA00EE0CAAB0EE480A00F08A
:105BF00003F920EE2D0A3AEE0D1A00EE0C1A31EEE2
:105C00000D0AC0EE0EEA2EEE8F0A00F033F9B0EE68
:105C100040AAB0EE690A0EEEA80A00F02BF9B0EE29
:105C20006C1A20EE2A0A0AEE2B1ABDEEC00ABDEE4F
:105C3000C11A10EE100A11EE101A413041EA00406C
:105C400000F57F40FFF734F8ADF80C00000C8DF83C
:105C50000E002846514622463B46CDF800B0FFF7DD
:105C6000CBF8B0454446ACD30298814596D304B0F6
:105C7000BDEC108B01B0BDE8F08F00BF0000964472
:105C80000000FA43333383400000204200007C428E
:105C90000000FC420000FE422DE9F04F81B02DEDE6
:105CA000108B84B0054641F23420C2F200008A46CF
:105CB0000488611C01800020302101F063F88842D3
:105CC000029180F0828000EE104A9FED441AF3EEBC
:105CD000008A9FED43DAB8EE40CA9FED3F0A9FED80
:105CE00041EA0DF10C0B9FED40FA8146DFED3F9A42
:105CF000DFED3FAADFED3FBA8CEE008A8CEE019A11
:105D000001204F4601F089F819EB00095DD200200F
:105D1000602101F037F8884254D200EE107A044630
:105D20000E46F8EE40CA012001F077F814EB0008A7
:105D300048D200EE104AB8EE40AAB0EE490A00F090
:105D400099F820EE0A0A30EE000A30EE0C0A30EE26
:105D50000DAAB0EE480A00F04FF800EE2CAA3AEE79
:105D60000E0A80EE0FAAB0EE4A0A00F083F8B0EEF9
:105D700040BA2AEE280A00F07DF8B0EE6B1A20EE49
:105D8000290A0BEE2A1ABDEEC00ABDEEC11A10EEAA
:105D9000100A11EE101A413041EA004000F57F4030
:105DA000FEF786FFADF80C00000C8DF80E002846BB
:105DB000514622463B46CDF800B0FFF71DF8B045EE
:105DC0004446B0D3029881459AD304B0BDEC108B01
:105DD00001B0BDE8F08F00BF00004843000016434B
:105DE00066660640CDCC8C3F000020420000804219
:105DF0000000FC42000001439FED1C1AB5EE002A92
:105E0000BFEE004A20EE010A30EE021ABDEEC13AA2
:105E1000B8EEC33AB4EEC31A33EE045AF1EE10FAF8
:105E200048BFB0EE453A33EE021AB3EE003A30EE18
:105E3000410ABEEE001A10EE100A20F0004002EEF9
:105E4000100A32EE011A21EE031A20EE010A9FED2C
:105E5000081A10EE100A20EE011A20F0004002EE9F
:105E6000100A32EE042A01EE020A704783F9223E3C
:105E70006666663E9FED1E1AB5EE002ABFEE004A2A
:105E800030EE010A9FED1B1A20EE010A30EE021AD5
:105E9000BDEEC13AB8EEC33AB4EEC31A33EE045ABB
:105EA000F1EE10FA48BFB0EE453A33EE021AB3EE07
:105EB000003A30EE410ABEEE001A10EE100A20F051
:105EC000004002EE100A32EE011A21EE031A20EE13
:105ED000010A9FED091A10EE100A20EE011A20F0B7
:105EE000004002EE100A32EE042A01EE020A704768
:105EF000DB0FC9BF83F9223E6666663E00F08EBDA9
:105F000010B5044600F00EFF01210170204600F09C
:105F100009FF0078C007F9D1204600F003FF406870
:105F20000028F3D110BDF0B581B01D4616460F46CE
:105F3000044600F0F7FE0699FAB200EB8200320444
:105F400042EA4121EAB2114401F5106101622046A2
:105F500000F0E8FE40680028F9D101B0F0BD70B54E
:105F600015460E46044600F0DDFEF1B200EB810658
:105F7000284600F0C2FB042161F31F10C6F8800020
:105F8000204600F0CFFE40680028F9D170BD80B5F2
:105F900082B0DDF810C04FF0000ECDE900CE00F069
:105FA00002F802B080BD2DE9F04381B004460898A4
:105FB0001E461746894600F0BFFE018821F4706135
:105FC00001F580710180484600F0B1FE416941F061
:105FD00080014161384600F0B9FE099940F6041885
:105FE000C0F2010821B3818A49F66172114042F280
:105FF0001E0211438182384600F0A8FE042101747C
:10600000384600F0A3FEC068C007F9D06F46384696
:10601000FFF776FF384600F085FE08F10101816246
:106020006F46384600F07EFE40680028F8D118E040
:10603000C16941F00601C161384600F087FE0021C8
:106040006F4601743846FFF75BFF384600F06AFE82
:10605000C0F828806F46384600F064FE406800288B
:10606000F8D143F6FC75384600F05CFE40682840E5
:106070000428F8D0384600F055FE40F206114FF6DD
:106080008075C0F21801C0F207054163384600F080
:1060900049FE40682840B0F5805FF7D0384600F0F0
:1060A00041FE4521C0F88410304600F04AFE3B21F5
:1060B0004163304600F045FE00218163304600F028
:1060C00040FE022180F83010304600F03AFE006CAD
:1060D000C007F9D0304600F034FE006C8007F3D5DD
:1060E000384600F01FFE43F6FC7508F1030101621B
:1060F000384600F017FE406828400428F8D048468B
:1061000000F015FE01210025417140F60060C0F24B
:10611000277048F28042C4E902054FF4FA4104F1C5
:106120002000C4E90415C0F21E021821C4E9065279
:1061300001F05BFB8020C4E9000501B0BDE8F083FD
:10614000806800217047D4D42DE9F04182B0064622
:10615000C8B206EB800555F8080F10B100200C24DA
:1061600024E008981F460090304690460C46FFF702
:10617000DAFEF9B24FF4FA40DFE801F01C1C1C050E
:1061800010100C071C00F06808E040F60060C0F238
:10619000277003E046F60040C0F2DC205FEA0841C9
:1061A0000DD01FFA88F1B0FBF1F12960214602B051
:1061B000BDE8F08141F2CC20C0F2020003E041F2E0
:1061C0006C20C0F2020000F03BFEFEDE006870476B
:1061D00000687047B0B50446006840F080602060F9
:1061E0000D7920461A212A46FFF7B9FE85F00800EE
:1061F00041F2E42100F00F00C0F2020151F820004A
:1062000004EB800081680120B0BDB0B50446006891
:1062100040F0800020600D79204607212A46FFF7D4
:106220009EFE85F0080041F2E42100F00F00C0F26C
:10623000020151F8200004EB800081680120B0BD0C
:10624000B0B50446006840F4807020600D792046A7
:1062500008212A46FFF783FE85F0080041F2E42179
:1062600000F00F00C0F2020151F8200004EB8000A2
:1062700081680120B0BD70B588B0064602208DF857
:106280001D00082001ADCDF8190000208DF8182060
:10629000019105930490CDE90200284600F010F822
:1062A000C0B2082807D10ECD301D0EC095E81E00E3
:1062B0001EC0002001E070700120307008B070BD79
:1062C00070B50646046800F0B0FD317D204600F050
:1062D0008FFBC5B2082D14D1204600F01EFD0169C8
:1062E0000123327D02F01F0203FA02F291430161A1
:1062F0002046317D737E327E002A18BF052200F0D1
:106300001AFB284670BDB0B50546046800F08DFD47
:10631000687D052801D10520B0BDA87DE0B1297DAB
:1063200020291BD2286900EB01104088A0B1D5E9D3
:1063300001200523D5F80CC06B75002A18BF012277
:10634000002818BF02322046BCF1000F18BF0432EB
:1063500000F01AFB0820B0BD0220B0BD41F27C4025
:106360002022C0F2020000F08AFDFEDEF0B581B00E
:106370000C460546066800F058FD287E2F7D002853
:1063800018BF05202876304600F0C7FC00EB071048
:106390002206016C21F4FE4118BF01F5A0610164E1
:1063A00001B0F0BD70B50C460546066800F03DFD35
:1063B000297D30466C762246BDE8704000F004BB73
:1063C0002DE9F047477D052F02D14FF0000C65E025
:1063D000877D002F65D190F814C0BCF1200F67D2E3
:1063E000DDE908970124DDE90AA8002F847518BFAC
:1063F00040F2014444EA0924DDF830E0056944EA4A
:106400004834BAF1000F18BF44F40064BEF1000F25
:106410004FEA0C1605EB0C1C18BF44F48054AC5327
:10642000ACF802309FB119F0030704D0012F0CBF64
:106430000227042700E0012707FB03F47546BEF19D
:10644000000F18BF08F00F05AC4011FA84F1BAF143
:10645000000FCCF8041012D019F0030104D0012968
:106460000CBF0221042100E00121594308F00F0371
:10647000BEF1000F18BF0023994012FA81F2CCF848
:106480000820C17D31B1017D202915D2006900EBC2
:10649000011000E000200CF10C0108606046BDE82E
:1064A000F08741F27030C0F2020000F0C9FCFEDE5D
:1064B00041F27C40614601E041F27C40C0F20200C2
:1064C000202200F0DCFCFEDE2DE9F04381B01E4608
:1064D000904689460746046800F0A7FC08203D7DE9
:1064E0007875204600F019FC00EB0510022180F8B9
:1064F0004E10397D202941D238690A0100EB011480
:10650000825AC2F3012000F0A5F8310418BF66805A
:10651000C0B2B9F1000F15D02188490510D56188A6
:1065200020B101280CBF0222042200E001225143C5
:106530002288D20442BF2288520B914019FA81F975
:10654000C4F80490B8F1000F15D02188090510D5C2
:10655000618820B101280CBF0220042000E0012046
:1065600048432188C90442BF2188490B884018FA52
:1065700080F8C4F8088001B0BDE8F08341F27C40A7
:106580002022C0F2020000F07AFCFEDEB0B5044624
:10659000056800F04AFC284600F0BFFB217D00EBB7
:1065A000011090F84E00C0F34000B0BDB0B50446F5
:1065B000056800F03AFC284600F0AFFB217D00EBB7
:1065C000011090F84F0000F00100B0BD10B584B08C
:1065D0000078DFE800F0040B121920252C3101AC03
:1065E00041F28832C0F2020208232BE001AC41F2F2
:1065F000B532C0F202020E2324E001AC41F2AB320C
:10660000C0F202020A231DE001AC41F2A932C0F23D
:106610000202022316E041F2A232C0F202020FE0AF
:1066200001AC41F29032C0F2020204230AE041F2CE
:106630009B32C0F2020203E041F29432C0F2020245
:1066400001AC0723204600F045FF204600F075FC12
:1066500004B010BD81B2032938BF70478AB0ADF8CD
:106660000600012008A90790069100210591CDE9B7
:10667000030141F2D830C0F2020041F21C41029005
:1066800047F2E150C0F20000C0F2020109900DF1A2
:106690000600089002A800F012FCFEDE2DE9F04191
:1066A00082B0044608461E46904600F040FB01AF0B
:1066B0006FF07F410161384600F02FFB0025058017
:1066C000384600F02AFB01210180384600F025FB06
:1066D0004663384600F021FB06F5007181633846B9
:1066E00000F01BFB40F602710180404600F07FF88D
:1066F0002570656002B0BDE8F081704710B582B0CA
:10670000044601A8002100F05FFBA06802B010BDA4
:1067100089B24FF47A72514300F006B8C9B24FF40F
:106720007A72514300F000B8F0B581B004460068B9
:106730004DF68362C4F21B32A0FB0202900C00FBF8
:1067400001F6D6B16FF07F476FF07F45BE4238BF8C
:1067500035462046294600F044FB204600F013FB56
:10676000204600F020FB204600F026FB0028FAD04F
:10677000204600F00FFB761BE6D101B0F0BD89B2D8
:10678000FFF7D2BFC9B2FFF7CFBF48F20800C4F28B
:106790000010704748F20400C4F20010704748F23D
:1067A0004000C4F20010704748F21800C4F2001014
:1067B000704748F23000C4F20010704748F2880079
:1067C000C4F20010704748F28400C4F20010704711
:1067D00048F2C000C4F20010704748F29800C4F2BA
:1067E0000010704748F2B000C4F2001070472DE965
:1067F000F04383B004460DF102001F258DF80250CE
:1068000000F028F900F01F0100F0E0004FF001084F
:1068100008FA01F7C60800F0F1FA87510DF10300FC
:106820008DF8035000F016F90546204600F0EBFA0B
:1068300050FA85F04FF00709202580F8009301A851
:106840008DF8045000F006F900F01F0100F0E000A0
:1068500008FA01F6C70800F0D1FAC6510DF105009B
:106860008DF8055000F0F6F80546204600F0CBFA0A
:1068700050FA85F0212580F800930DF106008DF87F
:10688000065000F0E7F800F01F0100F0E00008FA01
:1068900001F6C70800F0B2FAC6510DF107008DF8F5
:1068A000075000F0D7F80546204600F0ACFA50FA41
:1068B00085F0222580F8009302A88DF8085000F09A
:1068C000C9F800F01F0100F0E00008FA01F6C7085F
:1068D00000F094FAC6510DF109008DF8095000F04E
:1068E000B9F80546204600F08EFA50FA85F02325C7
:1068F00080F800930DF10A008DF80A5000F0AAF814
:1069000000F01F0100F0E00008FA01F6C70800F0EF
:1069100075FAC6510DF10B008DF80B5000F09AF886
:106920000546204600F06FFA50FA85F080F8009393
:1069300003B0BDE8F083F0B581B01C4615460E46A5
:10694000074600F0EAF9F6B2002100EB061080F8E5
:106950004510384600F0E1F941F22C4200EB0610F8
:1069600061B2C0F20202036C48F2FF0752F8211034
:10697000CFF2CF0703EA07022B0618BF02F5A06289
:106980001143016401B0F0BD70B514460D460646D2
:1069900000F0C3F9EDB204F0070400EB051080F835
:1069A0004D40304600F0B9F900EB051084F00701C6
:1069B00080F84C10304600F0B0F900EB0510016C87
:1069C00041F00201016470BDB0B50C4651B241F214
:1069D0002C42C0F2020252F8215000F09EF9E1B2BE
:1069E00000EB0110016C21F4401129430164B0BD9A
:1069F000B0B50C46016804F01F02012505FA02F249
:106A000011421CBF0520B0BD1143016000F085F9A3
:106A1000E1B200EB011005640820B0BD704780B5FD
:106A200000F0A3F980BD10B582B00446084600F01E
:106A30007EF9816941F48041816101A800F095F9F6
:106A4000016821F002010160C17A0907FCD42068C5
:106A500002B010BD01788720DFE811F06E007000F1
:106A600072007400760078007A007C007E0080005E
:106A700082008400860088008A008C008E009000CE
:106A800092009400960098009A009C009E00A0003E
:106A9000A200A400A600A800AA00AC00AE00B000AE
:106AA000B200B400B600B800BA00BC00BE00C0001E
:106AB000C200C400C600C800CA00CC00CE00D0008E
:106AC000D200D400D600D800DA00DC00DE00E000FE
:106AD000E200E400E600E800EA00EC00EE00F0006E
:106AE000F200F400F600F800FA00FC00FE000001DD
:106AF00002010401060108010A010C010E01100146
:106B000012011401160118011A011C011E012001B5
:106B100022012401260128012A012C012E01300125
:106B200032013401360138013A013C013E01400195
:106B3000420144014601470100207047012070478F
:106B400002207047032070470420704705207047DB
:106B500006207047072070470820704709207047BB
:106B60000A2070470B2070470C2070470D2070479B
:106B70000E2070470F20704710207047112070477B
:106B8000122070471320704714207047152070475B
:106B9000162070471720704718207047192070473B
:106BA0001A2070471B2070471C2070471D2070471B
:106BB0001E2070471F2070472020704721207047FB
:106BC00022207047232070472420704725207047DB
:106BD00026207047272070472820704729207047BB
:106BE0002D2070472E2070472F207047302070478F
:106BF000312070473220704733207047342070476F
:106C0000352070473620704737207047382070474E
:106C1000392070473A2070473B2070473C2070472E
:106C20003D2070473E2070473F207047402070470E
:106C300041207047422070474320704744207047EE
:106C400045207047502070475120704752207047B0
:106C50005320704755207047562070475720704783
:106C600058207047592070475A2070475B20704762
:106C70005C2070475D2070475E2070475F20704742
:106C80006020704761207047622070476320704722
:106C9000642070476B2070476C2070476D207047F0
:106CA0006E207047732070477420704775207047BE
:106CB000762070477720704778207047792070479A
:106CC0007A2070477B2070477C2070477D2070477A
:106CD0007E2070477F207047812070478220704758
:106CE00083207047842070478620704770470021BA
:106CF000C0E90011C0E90211704710B584B001ACC1
:106D000041F28C42C0F202020723204600F0E2FB6F
:106D1000204600F012F904B010BD4AF20000C4F29F
:106D20000010704741F60040C4F20000704740F682
:106D30000000C4F20000704744F20000C4F20010EA
:106D4000704741F20000C4F20000704741F2004079
:106D5000C4F20000704743F20000C4F20000704724
:106D600043F20040C4F2000070474CF20000C4F24D
:106D70000110704741F236200121C2F2000001707B
:106D80007047704770474EF218000021CEF20000A5
:106D9000016070474EF21000CEF20000016821F051
:106DA0000101016070474EF21000CEF20000016850
:106DB00041F00101016070474EF21000CEF2000078
:106DC0000068C0F3004070474EF210000029CEF278
:106DD0000000026842F0040318BF22F004030360BD
:106DE00070474EF21400CEF200000160704741F28D
:106DF00037200121C2F20000017070474EF20010EE
:106E0000CEF2000070474EF20010CEF20000704744
:106E10000078B0FA80F040097047704772B670474A
:106E200062B67047EFF3108070477047704744F2C6
:106E3000D45043F29241C0F69A50CDF20D01704702
:106E40008CB0D0E900E241F29445D0E902C30024BD
:106E5000D0E90410C0F20205CDE90A1008A9059492
:106E600068460495CDE902440124019406AC0094DF
:106E7000CDE906E2CDE908C300F021F8FEDE8CB0D2
:106E80000346CDE90012022008A9079006910021CF
:106E90000591CDE9030141F2DC40C0F202006946F0
:106EA000029047F2EB50C0F200000B90CDE90901CF
:106EB00001A8089002A8194600F001F8FEDE88B08B
:106EC000D1E900C3D1E902210791CDE90532CDE92D
:106ED000030C41F2B840C0F20200029041F294402B
:106EE000C0F20200019001A800F08FFBFEDE8EB020
:106EF0008DE80F0002200AA909900891002107914E
:106F0000CDE9050141F2F040C0F2020041F2185112
:106F1000049047F2F550C0F20000C0F202010D905B
:106F200002A80C9047F2FF50C0F200000B90684698
:106F30000A9004A8FFF7C3FFFEDEB0B50446057A49
:106F4000406808B30DB101251DE0012810D1607A19
:106F500070B12168087840070AD4D1E906010122FE
:106F6000CB6841F2F151C0F202010125984750B9B6
:106F700021680122D1E90601CB6841F22851C0F213
:106F80000201984705462572002D18BF01252846A5
:106F9000B0BDD4D42DE9F04F83B0DDE90C691F46B4
:106FA00092460446C9B1D4F800E04FF02B081EF019
:106FB000010108BF4FF4881801EB090B5FEA4E711D
:106FC00014D5BFB1791E07F0030C032914D2002198
:106FD0005346BCF1000F36D14DE0D4F800E009F182
:106FE000010B4FF02D085FEA4E71EAD400274FF0F5
:106FF000000A44E000213EE0CDE90196ACEB070633
:10700000002153461D785A78987805F0C00593F80A
:107010000390802D02F0C00208BF0131802A00F0E9
:10702000C00008BF0131802809F0C00008BF01314D
:10703000802808BF013104330436E3D1DDE901962D
:10704000BCF1000F17D0187800F0C000802808BFEE
:107050000131BCF1010F0ED0587800F0C00080283B
:1070600008BF0131BCF1020F05D0987800F0C000D4
:10707000802808BF01310BEB0700A0EB010BA068D3
:10708000012815D1E5685D4512D95FEA0E700296B8
:1070900023D494F83010A5EB0B060020032908BF79
:1070A0000121DFE801F0390236023046002633E0E4
:1070B0002046414652463B4600F080F820B101266A
:1070C000304603B0BDE8F08FE1694A46A069CB685D
:1070D000314603B0BDE8F04F18470126302084F850
:1070E000306041466060204652463B4600F066F8FC
:1070F0000028E5D194F83010A5EB0B0600200329F9
:1071000008BF0121DFE801F03502320230460026D7
:107110002FE0711C70084E08451C013D07D0D4E9D2
:1071200006026168126990470028F6D0C7E720463A
:10713000414652463B46D4F804B000F03FF80028E0
:10714000BDD1D4E906014A46CB6802999847002888
:10715000B5D1D4E90654771C0126013F2CD0226911
:107160002846594690470028F7D0A9E7711C7008B7
:107170004E08451C013D07D0D4E90602616812693A
:1071800090470028F6D09AE7D4E906014A46CB6832
:107190000299D4F80480984700287FF490AFD4E98E
:1071A0000674751C0126013D06D022693846414609
:1071B00090470028F7D083E7002681E770B51C468A
:1071C00015460646B1F5881F06D0D6E906021269B3
:1071D000904708B1012070BD3DB1D6E906012246B5
:1071E000CB682946BDE870401847002070BDD4D454
:1071F0002DE9F04F81B0D0F808E082460069914651
:107200008846BEF1010F0FD188B9B9F1000F00F027
:10721000AB80A9F1010109F00300032960D200212C
:10722000424600287CD1A0E0002800F0B380B9F1EC
:10723000000F4ED0DAF8140008EB0901002247468F
:10724000431C46463C4614F9015BB5F1FF3FE8B2EA
:1072500028DC8C4205D07D78BC1C05F03F05274614
:1072600001E000250F4600F01F0BDF2807D98F42F1
:1072700008D017F8014B04F03F0C3C4605E045EA06
:107280008B100FE04FF0000C0F464CEA8515F028EC
:1072900006D38F4210D017F8010B00F03F000DE02D
:1072A00045EA0B302746013B51D0901BB94200EB19
:1072B00007023E46C6D14EE0002027464FF4E014B8
:1072C00004EA8B4444EA85152844B0F5881FEAD1C6
:1072D00041E00022BEF1000F41D1DAE906015EE093
:1072E000A0EB0903002142461778567807F0C00743
:1072F0009578D478802F06F0C00708BF0131802F21
:1073000005F0C00708BF0131802F04F0C00708BF97
:107310000131802F08BF013104320433E4D120B39E
:10732000137803F0C003802B08BF013101281CD063
:10733000537803F0C003802B08BF0131022814D01A
:10734000907800F0C000802808BF01310DE0B0F552
:10735000881F40F076804A46BEF1000FBDD09146AE
:10736000B9F1000F7FF455AF0021DAF80C00A9EB5A
:10737000010181420ED2B9F1000F16D0A9F101012D
:1073800009F0030C032912D200214346BCF1000F7F
:107390002FD146E0DAF81C104A46DAF81800CB681C
:1073A000414601B0BDE8F04F1847002139E0ACEB91
:1073B0000907002143461E785D7806F0C0069C78D8
:1073C000DA78802E05F0C00608BF0131802E04F067
:1073D000C00608BF0131802E02F0C00208BF013193
:1073E000802A08BF013104330437E4D1BCF1000F17
:1073F00017D01A7802F0C002802A08BF0131BCF110
:10740000010F0ED05A7802F0C002802A08BF013165
:10741000BCF1020F05D09A7802F0C002802A08BFA2
:1074200001319AF83030A1EB09010E180020DA1E64
:1074300018BF1A46DFE802F00E020B0230460026A3
:1074400008E0002A18BF4A452CD1404633E0711CA1
:1074500070084E08441C013C08D0DAE90602DAF84C
:107460000410126990470028F5D013E0DAE906010C
:107470004A46CB684146DAF80470984750B9DAE9D1
:1074800006450136013E09D02A6920463946904713
:107490000028F7D0012001B0BDE8F08F002001B036
:1074A000BDE8F08F4A4504D218F9020010F1400FF0
:1074B000CBDA0020002200280CBF4A468046BEF1ED
:1074C000000F7FF44CAF08E7D0E90630D0F80CC0CD
:1074D0001846604770B50D460646D1E906011C46C0
:1074E000CB681146224698473072B4FA84F04009BE
:1074F00070720020C6E9005070BD2DE9F04F8FB0CA
:1075000041F2295E174648F21F520D4642F21071B1
:107510008842C5F2EB12C0F2020E39D341F259791A
:107520004EF2FF080DF1140B0024CDF2B7194FF005
:10753000640AC0F2F558CDE90357A0FB09560BEBDE
:107540000403043C40454FEA563505FB1106284626
:10755000B7B2A7FB027C4FEA5C1707FB1A663EF83E
:107560001770A3F82370B6B23EF81660A3F8256032
:10757000E3D82846DDE90357273463280BDC0346AC
:107580000A2B17DBA01E3EF8133005AA135215E094
:1075900027246328F3DD83B2023CA3FB0263642645
:1075A0005B0903FB160005AE80B23EF810003053B5
:1075B0000A2BE7DA601E05AA30331354C0F1270303
:1075C00005AA104441F29442CDE90003C0F2020240
:1075D000384629460023FFF7DDFC0FB0BDE8F08FE9
:1075E00000880A460121FFF788BF00680A4601218A
:1075F000FFF783BFD0E90020C368104618470B4649
:10760000D0E900121846FFF7F3BDFEE7F0B582B3EC
:10761000531E02F0030C032B04D20022BCF1000F16
:1076200019D126E0ACEB020E4B1C441C6FF0030298
:107630009D18A7180432EE78FE702E793E716E798F
:107640007E71AD79BD710EEB02050435F0D10432C7
:10765000BCF1000F0DD08B5CBCF1010F835408D03E
:10766000531CBCF1020FCF5CC75402D00232895CBC
:107670008154F0BD042A38BFFFF7C8BFB0B5A2F1EE
:10768000040C012303EB9C0313F003030ED08E467E
:1076900004465EF8045B012B44F8045B1FD163468B
:1076A00020467146BCF10C0F04D212E01346BCF127
:1076B0000C0F0ED30D68103B0560032B4D68456021
:1076C0008D688560CD6801F11001C56000F1100082
:1076D000F0D802F00302BDE8B040FFF797BF4D6855
:1076E000022B456007D1A2F1080308310830BCF134
:1076F0000C0FDFD2EDE78B680C318360A2F10C0335
:107700000C30BCF10C0FD5D2E3E7FFF7B3BF10B5D7
:10771000002908BF10BD4B1E01F0030C032B01D242
:1077200000210FE0ACEB010E411C6FF00303CC18FD
:107730000433A27162712271E2700EEB030404340F
:10774000F5D1191DBCF1000F1CBF4254BCF1010F53
:1077500000D110BD0844BCF1020F427018BF827006
:1077600010BD1346D2B2042938BFFFF7D0BF10B501
:10777000A1F1040E42EA0363012443EA024304EB4D
:107780009E0443EA022314F003040AD08446012C29
:107790004CF8043B0AD174466046BEF10C0F14D27B
:1077A0001CE00C46BEF10C0F18D30EE0022C436017
:1077B00003D10830A1F1080403E083600C30A1F18B
:1077C0000C048446BEF10C0F08D3C0E90033103C12
:1077D000C0E902331030032CF7D8844601F00301CE
:1077E000BDE810406046FFF792BF0022FFF7B9BF27
:1077F00000F03AF841F2382040F21001C2F20000E5
:10780000C2F20001814208D240F210010022C2F20D
:10781000000141F8042B8142FBD340F2100040F2FA
:107820000001C2F20000C2F2000181420DD241F219
:10783000F45140F20002C0F20201C2F2000251F81B
:10784000043B42F8043B8242F9D34EF68850CEF214
:107850000000016841F47001016000F001F8FEDEF3
:10786000FCF722FDFEDEFEE7704770460421084269
:1078700002D1EFF3088002E0EFF30980FFE7FEE7B3
:1078800063616C6C656420604F7074696F6E3A3A26
:10789000756E77726170282960206F6E206120609C
:1078A0004E6F6E65602076616C75657372632F6CC8
:1078B0006962636F72652F6F7074696F6E2E727379
:1078C000807800002B000000AB780000150000005D
:1078D0007A0100001500000063616C6C6564206033
:1078E000526573756C743A3A756E777261702829B7
:1078F00060206F6E20616E2060457272602076613C
:107900006C7565006342000001000000010000008A
:10791000CD6500006542000000000000010000008D
:10792000FB6C00006142000001000000010000004B
:10793000F3500000FF0000FF7EAA997E5100010570
:107940009200216202B38200007201501100010115
:107950000000000000000000000000000000000027
:107960000000000000000000000000000000000017
:1079700000000000000080000080000002002000E5
:10798000000080000000000002000002000000086B
:1079900000000000000000000000000000000000E7
:1079A00000000000000000000000000000000000D7
:1079B00000000000000000000000000000000000C7
:1079C00000000000000000000000000009000000AE
:1079D0000000002400000000090000000000002456
:1079E0000000000000009000000000000000000007
:1079F0000000000000000000000000000000000087
:107A00000000000000000000000000000000000076
:107A10000000000000000000000000000000000066
:107A200000000000000040000000000002C0000054
:107A30000000000000000000000002000000000044
:107A40000000000000000000000000000000000036
:107A50000000000000000000000000000000000026
:107A60000000000000000000000000000000000016
:107A70000000000000000000000000000000000006
:107A80000400002000010000000070000000000061
:107A90000140001000000000000000000000000095
:107AA00000000000000000000000000000000000D6
:107AB00000000000000000000000000000000000C6
:107AC00000000000000000000000000000000000B6
:107AD00030000080000000C01001E000F000000055
:107AE000080000400001000000030000000000004A
:107AF0000000000000000000000000000000000086
:107B00000000000000000000000000000000000075
:107B10000000000000000000000000000000000065
:107B2000000000000000020000000000003800001B
:107B30000200060000000030000C00000000000001
:107B4000F000000000000000000000000000000045
:107B50000000000000000000000000000000000025
:107B60000000000000000000000000000000000015
:107B70000000000000000000000000000000000005
:107B800000000000000000000000000000000000F5
:107B900000000000000000000000000000000000E5
:107BA00000000000000000000000000000000000D5
:107BB00000000000000000000000000000000000C5
:107BC00000000000000000000000000000000000B5
:107BD00000000000000000000000000000000000A5
:107BE0000000000000000000000000000000000095
:107BF0000000000000000000000000000000000085
:107C00000000000000000000000000000000000074
:107C10000000000000000000000000000000000064
:107C20000000000000000000000010000000000242
:107C3000004000000080100000000000064000002E
:107C4000000008110000000000000000000000001B
:107C50000000000000000000000000000000000024
:107C60000000000000000000000000000000000014
:107C700000000000000000000000000000003400D0
:107C80000000000000D00000000000000000000024
:107C90000000000000000003C00000000000000021
:107CA00000000000000000000000000000000000D4
:107CB00000000000000000000000000000000000C4
:107CC00000000000000000000000000000000000B4
:107CD00000000000002000C00000000000030000C1
:107CE000000000C0000000000001000000000000D3
:107CF0000C00000000000000000000000000000078
:107D00000000000000000000000000000000000073
:107D10000000000000000000000000000000000063
:107D20000000000000000000000200140004000039
:107D3000080038001002000E0008000008000000D3
:107D400030000020000000400000000000000000A3
:107D500000000000000000000000000C0000000017
:107D60000000000000000000000000000000000013
:107D70000000000000000000000000000000000003
:107D800000000000000000000700000000000000EC
:107D900000000000000006000000001400000000C9
:107DA00000000000000000000000000000000007CC
:107DB000800600000000000000000000000000003D
:107DC00000000000000000000000000000000000B3
:107DD000000000000000000000000000000000089B
:107DE0000000000000000000000000000000000093
:107DF0000000200000000000000000000000000063
:107E0000000000000000000018000000000000005A
:107E10000000000000000000000000000000000062
:107E20000000000000000000000000000000000052
:107E300040000000000001000000000040000000C1
:107E4000000001000000000000040000000000002D
:107E50000000000000000000000000000000010021
:107E60000000000000000000000000000000000012
:107E70000000000000000000000000000000000002
:107E800000000001000000000000040000000001EC
:107E900000000000000004000000000000100000CE
:107EA00000000000000000000000000000000000D2
:107EB0000000000000000000000000000C30200066
:107EC00000000000000000000000000000000000B2
:107ED00000000000000000000000000000000000A2
:107EE0000000000000000000000000000001000091
:107EF0000000000000000000000000000000000082
:107F00000000000000000000000000000000000071
:107F1000000000C30000000000000000000000009E
:107F20000000000000000000000000000000000051
:107F30000000000000000000000000000000000041
:107F40000000000000000000000000000000000031
:107F50000000000000000000000000000000000021
:107F60000000000000000000000C302000000000B5
:107F70000000000000000000000000000000000001
:107F800000000000000000000000000000000000F1
:107F900000000000000000000000000000000000E1
:107FA00000000000000000040000000000001000BD
:107FB00000000000000000000000000000000000C1
:107FC000C3000000000000000000000000000000EE
:107FD00000000000000000000000000000000000A1
:107FE0000000000000000000000000000000000091
:107FF0000000000000000000000000000000200061
:1080000000000000028000000000000000000000EE
:108010000000000000000C30200000000000000004
:108020000000000000000000000000000000000050
:10803000000000000000000000000001000000003F
:1080400000400000000000000000000000000000F0
:108050000000000000000000000000000000000020
:1080600000000000000000000000000000C300004D
:108070000000000000000000000000000000000000
:1080800000000000000000000000000000000000F0
:1080900000000000000000000000000000000000E0
:1080A00000000000000000000000000000000000D0
:1080B00000000000000000000000000000000000C0
:1080C0000000000C30200000000000000000000054
:1080D00000000000000000000000000000000000A0
:1080E0000000000000000000000000000000000090
:1080F0000000000000000000000000000000000080
:10810000000000000000000000000000000000006F
:1081100000000000000000000000C300000000009C
:10812000000000000000000000000000000000004F
:10813000000000000000000000000000000000003F
:10814000000000000000000000000000000000002F
:10815000000000000000000000000000000000001F
:10816000000000000000000000000000000000000F
:108170000C302000000000000000000000000000A3
:1081800000000000000000000000000000000000EF
:1081900000000000000000000000000000000000DF
:1081A00000000000000000000000000000000000CF
:1081B00000000000000000000000000000000000BF
:1081C00000000000000000C30000000000000000EC
:1081D000000000000000000000000000000000009F
:1081E000000000000000000000000000000000008F
:1081F00000000000000000008000000000000000FF
:10820000000000000000000000000000000000006E
:10821000000000400000000000000000000C3020C2
:10822000000000000000000000000000000000004E
:10823000000000000000000000000000000000003E
:10824000000000000000000000000000000000002E
:10825000000000000000000000000000000000001E
:108260000000000000000000000C00000000000002
:1082700000000000C300000000000000000000003B
:1082800000000000000000000000000000000000EE
:1082900000000000000000000000000000000000DE
:1082A00000000000000000000000000000000000CE
:1082B00000000000000000000000000000000000BE
:1082C000000000000000000000000C302000000052
:1082D000000000000000000000000000000000009E
:1082E000000000000000000000000000000000008E
:1082F000000000000000000000000000000000007E
:10830000000000000000000000000000000000006D
:10831000000000000000000000000000000000005D
:1083200000C300000000000000000000000000008A
:10833000000000000000000000000000000000003D
:10834000000000000000000000000000000000002D
:10835000000000000000000000000000000000001D
:10836000000000000000000000000000000000000D
:10837000000000000000000C3020000000000000A1
:1083800000000000000000000000000000000000ED
:1083900000000000000000000000000000000000DD
:1083A00000000000000000000000000000000000CD
:1083B00000000000000000000000000000000000BD
:1083C0000000004000000000000000000000C300AA
:1083D000000000000000000000000000000000009D
:1083E000000000000000000000000000000000008D
:1083F000000000000000000000000000000000007D
:10840000000000000000000000000000000000006C
:108410000000000000000000000A00000000000052
:10842000000000000C3020000000000000000000F0
:10843000000000000000000000000000000000003C
:10844000000000000000000000000000000000002C
:10845000000000000000000000000000000000001C
:10846000000000000000000000000000000000000C
:108470000000000000000000000000C30000000039
:1084800000000000000000000000000000000000EC
:1084900000000000000000000000000000000000DC
:1084A00000000000000800000000000400000000C0
:1084B00000000000000000000000000000000000BC
:1084C00000000000000000000000000000000000AC
:1084D000000C302000000000000000000000000040
:1084E000000000000000000000000000000000008C
:1084F000000000000000000000000000000000007C
:10850000000000000000000000000000000000006B
:10851000000000000000000000000000004000001B
:108520000000000000000000C30000000000000088
:10853000000000000000000000000000000000003B
:10854000000000000000000000000000000000002B
:10855000000000000000000000000000000000001B
:10856000000000000000000000000000000000000B
:1085700000000002000000000000000000000C30BD
:1085800020000000000000000000000000000000CB
:1085900000000000000000000000000000000000DB
:1085A00000000000000000000000000000000000CB
:1085B00000000000000000000000000000000000BB
:1085C00000000000000000000000000000000000AB
:1085D0000000000000C300000000000000000000D8
:1085E000000000000000000000000000000000008B
:1085F000000000000000000000000000000000007B
:10860000000000000000000000000000000000006A
:10861000000000000000000000000000000000005A
:1086200000000000000000000000000C30200000EE
:10863000000000000000000000000000000000003A
:10864000000000000000000000000000000000002A
:10865000000000000000000000000000000000001A
:10866000000000000000000000000000000000000A
:1086700000000000000000000000000000000000FA
:108680000000C30000000000000000000000000027
:1086900000000000000000000000000000000000DA
:1086A00000000000000000000000000000000000CA
:1086B00000000000000000000000000000000000BA
:1086C00000000000000000000000000000020000A8
:1086D00000000000000000000C302000000000003E
:1086E000000000000000000000000000000000008A
:1086F000000000000000000000000000000000007A
:108700000000000000000000000100000000000068
:108710000000000000000000000000000000000059
:10872000000000000000000000000000000000C386
:108730000000000000000000000000000000000039
:108740000000000000000000000000000000000029
:108750000000000000000000000000000000000019
:108760000000000000000000000000000000000009
:1087700000000000000000000000000000000000F9
:1087800000000000000C302000000000000000008D
:1087900000000000000000000000000000000000D9
:1087A00000000000000000000000000000000000C9
:1087B00000000000000000000000000000000000B9
:1087C00000000000000000000000000000000000A9
:1087D000000000000000000000000000C3000000D6
:1087E0000000000000000000000000000000000089
:1087F0000000000000000000000000000000000079
:108800000000000000000000000000000000000068
:108810000000000000000000000000000000000058
:108820000004000000000000000000000000000044
:1088300000000C30200000000000000000000000DC
:108840000000000000000000000000000000000028
:108850000000000000000000000000000000000018
:108860000000000000000000000000000000000008
:1088700000000000000000000000000000000000F8
:10888000000000000000000000C300000000000025
:1088900000000000000000000000000000000000D8
:1088A00000000000000000000000000000000000C8
:1088B00000000000000000000000000000000000B8
:1088C00000000000000000000000000000000000A8
:1088D0000000000000000000000000000000000C8C
:1088E0003020000000000000000000000000000038
:1088F0000000000000000000000000000000000078
:108900000000000000000000000000000000000067
:108910000000000000000000000000000000000057
:108920000000000000000000000000000000000047
:10893000000000000000C300000000000000000074
:108940000000000000000000000000000000000027
:108950000000000000000000000000000000000017
:108960000000000000000000000000000000000007
:1089700000000000000000000000000000000000F7
:108980000000000000000000000000000C3020008B
:1089900000000000000000000000000000000000D7
:1089A00000000000000000000000000000000000C7
:1089B00000000000000000000000000000000000B7
:1089C00000000000000000000000000000000000A7
:1089D0000000000000000000000000000000000097
:1089E000000000C3000000000000000000000000C4
:1089F0000000000000000000000000000000000077
:108A00000000000000000000000000000000000066
:108A10000000000000000000000000000000000056
:108A2000000000000000000000000000000000A0A6
:108A30000000000000000000000C302000000000DA
:108A40000000000000000000000000000000000026
:108A50000000000000000000000000000000000016
:108A60000000000000000000000000000000000006
:108A700000000000000000000000000000000000F6
:108A800000000000000000000000000000000000E6
:108A9000C300000000000000000000000000000013
:108AA00000000000000000000000000000000000C6
:108AB00000000000000000000000000000000000B6
:108AC00000000000000000000000000000000000A6
:108AD0000000000000000000000000000000000096
:108AE0000000000000000C3020000000000000002A
:108AF0000000000000000000000000000000000076
:108B00000000000000000000000000A000000000C5
:108B10000000000000000000000000000000000055
:108B20000000000000000000000000000000000045
:108B300000000000000000000000000000C3000072
:108B40000000000000000000000000000000000025
:108B50000000000000000000000000000000000015
:108B60000000000000000000000000000000000005
:108B700000000000000000000000000000000000F5
:108B800000000000000000000000000000000000E5
:108B90000000000C30200000000000000000000079
:108BA00000000000000000000000000000000000C5
:108BB00000000000000000000000000000000000B5
:108BC00000000000000000000000000000000000A5
:108BD0000000000000000000000000000000000095
:108BE00000000000000000000000C30000000000C2
:108BF0000000000000000000000000000000000075
:108C00000000000000000000000000000000000064
:108C10000000000000000000000000000000000054
:108C20000000000000000000000000000000000044
:108C30000000000000000000000000000000000034
:108C40000C302000000000000000000000000000C8
:108C50000000000000000000000000000000000014
:108C60000000000000000000000000000000000004
:108C700000000000000000000000000000000000F4
:108C800000000000000000000000000000000000E4
:108C900000000000000000C3000000000000000011
:108CA00000000000000000000000000000000000C4
:108CB00000000000000000000000000000000000B4
:108CC0000000000000000000000000000000100094
:108CD0000000000000000000000000000000000094
:108CE000000000000000000000000000000C302028
:108CF0000000000000000000000000000000000074
:108D00000000000000000000000000000000000063
:108D10000000000000000000000000000000000053
:108D20000000000000000000000000000000000043
:108D30000000000000000000000000000000000033
:108D400000000000C3000000000000000000000060
:108D50000000000000000000000000000000000013
:108D60000000000000000000000000000000000003
:108D700000000000000000000000000000000000F3
:108D800000000000000000000000000000000000E3
:108D9000000000000000000000000C302000000077
:108DA00000000000000000000000000000000000C3
:108DB00000000000000000000000000000000000B3
:108DC00000000000000000000000000000000000A3
:108DD0000000020000000000000000000000000091
:108DE0000000000000000000000000000000000083
:108DF00000C30000000000000000000000000000B0
:108E00000000000000000000000000000000000062
:108E10000000000000000000000000000000000052
:108E20000000000000000000000000000000000042
:108E3000000000000000000000000000000800002A
:108E4000000000000000000C3020000000000000C6
:108E50000000000000000000000000000000000012
:108E60000000000000000000000000000000000002
:108E700000000000000000000000000000000000F2
:108E800000000000000000000000000000000000E2
:108E90000000000000000000000000000000C3000F
:108EA00000000000000000000000000000000000C2
:108EB00000000000000000000000000000000000B2
:108EC00000000000000000000000000000000000A2
:108ED0000000000000000000000000000000000092
:108EE0000000000000000000000000000000000082
:108EF000000000000C302000000000000000000016
:108F00000000000000000000000000000000000061
:108F10000000000000000000000000000000000051
:108F20000000000000000000000000000000000041
:108F30000000000000000000000000000000000031
:108F40000000000000000000000000C3000000005E
:108F50000000000000000000000000000000000011
:108F60000000000000000000000000000000000001
:108F700000000000000000000000000000000000F1
:108F800000000000000000000000000000000000E1
:108F900000000000000000000000000000000000D1
:108FA000000C302000000000000000000000000065
:108FB00000000000000000000000000000000000B1
:108FC00000000000000000000000000000000000A1
:108FD0000000000000000000000000000000000091
:108FE000000000000000020000000000000000007F
:108FF0000000000000000000C300000000000000AE
:109000000000000000000000000000000000000060
:109010000000000000000000000000000000000050
:109020000000000000000000000000000000000040
:109030000000000000000000000000000000000030
:1090400000000000000000000000000000000C30E4
:1090500020000000000000000000000000000000F0
:109060000000000000000000000000000000000000
:1090700000000000000000000000000000000000F0
:1090800000000000000000000000000000000000E0
:1090900000000000000000000000000000000000D0
:1090A0000000000000C300000000000000000000FD
:1090B00000000000000000000000000000000000B0
:1090C00000000000000000000000000000000000A0
:1090D0000000000000000000000000000000000090
:1090E0000000000000000000000000000000000080
:1090F00000000000000000000000000C3020000014
:10910000000000000000000000000000000000005F
:10911000000000000000000000000000000000004F
:10912000000000000000000000000000000000003F
:10913000000000000000000000000000000000002F
:10914000000000000000000000000000000000001F
:109150000000C3000000000000000000000000004C
:1091600000000000000000000000000000000000FF
:1091700000000000000000000000000000000000EF
:1091800000000000000000000000000000000000DF
:1091900000000000000000000000000000000000CF
:1091A00000000000010000000C302004000000005E
:1091B000000010000000000000400000000000015E
:1091C000000000000000040000000000001000008B
:1091D00000000C0000000000001000000000000073
:1091E000400000000000010000000000000400003A
:1091F000000000001000000000000010000000C38C
:109200000000400000000000010000000000000419
:1092100000000000000010000000000000400000FE
:1092200000000001000000000040000000000001FC
:10923000000000000000040000000000001000001A
:1092400000000000400000000000010000000000DD
:1092500000010000000C302004000000000000109D
:1092600000000000000040000000000001000000BD
:1092700000000004000000000000100000000004D6
:10928000000000000000100000000000004000008E
:1092900000000001000000000000040000000000C9
:1092A000001000000000000010000000C30000409B
:1092B00000000000000100000000000004000000A9
:1092C000000000100000000000004000000000004E
:1092D000010000000000400000000000010000004C
:1092E000000000040000000000001000000000006A
:1092F000004000000000000100000000000001002C
:1093000000000C30200400000000000010000000ED
:10931000000000400000000000010000000000000C
:109320000400000000000010000000000400000025
:1093300000000010000000000000400000000000DD
:109340000100000000000004000000000000100008
:10935000000000000010000000C3000040000000FA
:1093600000000100000000000004000000000000F8
:10937000100000000000004000000000000100009C
:10938000000000400000000000010000000000009C
:109390000400000000000010000000000000400079
:1093A0000000000001000000000000010000000CAF
:1093B0003020040000000000001000000000000049
:1093C0004000000000000100000000000004000058
:1093D0000000000010000000000400000000000079
:1093E000100000000000004000000000000100002C
:1093F0000000000004000000000000100000000059
:10940000000010000000C300004000000000000148
:109410000000000000000400000000000010000038
:1094200000000000400000000000010000000000FB
:1094300040000000000001000000000000040000E7
:1094400000000000100000000000004000000000CC
:109450000001000000000000000000000C302000AF
:1094600000000000000000000000000000000000FC
:1094700000000000000000000000000000000000EC
:1094800000000000000000000000000000000000DC
:10949000000000000000000000000A0000000000C2
:1094A000000000000000000000000000008000003C
:1094B000000000C3000000000000000000000000E9
:1094C000000000000000000000000000000000009C
:1094D000000000000000000000000000000000008C
:1094E000000000000000000000000000000000007C
:1094F000000000000000000000000000000000006C
:109500000000A00020000000000C3020000000003F
:10951000000000000000000000000000000000004B
:10952000000000000000000000000000000000003B
:10953000000000000000000000000000000000002B
:10954000000000000000000000000000000000001B
:10955000000000000A00003D6000800000000000E4
:10956000C300000000000000000000000000000038
:1095700000000000000000000000000000000000EB
:1095800000000000000000000000000000000000DB
:1095900000000000000000000000000000000000CB
:1095A000000000000000000000000080000602B083
:1095B0000000000000000C3020000000000000004F
:1095C000000000000000000000000000000000009B
:1095D000000000000000000000000000000000008B
:1095E000000000000000000000000000000000007B
:1095F000000000000000000000000000000000006B
:109600000000A01401C933C00000000000C3000026
:10961000000000000000000000000000000000004A
:10962000000000000000000000000000000000003A
:10963000000000000000000000000000000000002A
:10964000000000000000000000000000000000001A
:109650000000000000000000000022C2BCC80000A2
:109660000000000C3020000000000000000000009E
:1096700000000000000000000000000000000000EA
:1096800000000000000000000000000000000000DA
:1096900000000000000000000000000000000000CA
:1096A00000000000000000000000000000000000BA
:1096B0000039C933C00000000000C30000000000F2
:1096C000000000000000000000000000000000009A
:1096D000000000000000000000000000000000008A
:1096E000000000000000000000000000000000007A
:1096F000000000000000000000000000000000006A
:109700000000000000000004029CC80001000000EE
:109710000C302004000000000000100000000000D9
:1097200000400000000000010000000000000400F4
:109730000000000000100000000004000000000015
:1097400000100000000000004000000000000100C8
:10975000000000000024000000000000140001E9E7
:1097600033C00010000000C30000400000000000F3
:1097700001000000000000040000000000001000D4
:109780000000000000400000000000010000000098
:109790000040000000000001000000000000040084
:1097A0000000000000100000000000004000000069
:1097B000000001400000BCC000010000000C30208F
:1097C0000400000000000010000000000000400045
:1097D0000000000001000000000000040000000084
:1097E0000000100000000004000000000000100055
:1097F0000000000000400000000000010000000028
:109800000000040000000000001006016933C000E1
:1098100010000000C3000040000000000001000034
:109820000000000004000000000000100000000024
:1098300000004000000000000100000000004000A7
:109840000000000001000000000000040000000013
:1098500000001000000000000040000000000001B7
:10986000000002CCC000010000000C302004000009
:109870000000000010000000000000400000000098
:1098800000010000000000000400000000000010C3
:1098900000000000040000000000001000000000B4
:1098A0000000400000000000010000000000000473
:1098B0000000000000001000646933C000100000C8
:1098C00000C3000040000000000001000000000094
:1098D0000004000000000000100000000000004034
:1098E0000000000000010000000000400000000037
:1098F0000001000000000000040000000000001053
:109900000000000000004100000000000100020211
:109910009CC800010000000C302004000000000082
:1099200000100000000000004000000000000100E6
:109930000000000000040000000000001000000013
:1099400000040000000000001000000000000040C3
:109950000000000000010000000000000400000002
:1099600000000C103463E833400010000000C30016
:1099700000400000000000010000000000000400A2
:109980000000000000100000000000004000000087
:109990000000010000000000400000000000010085
:1099A00000000000000400000000000010000000A3
:1099B000000000400000000000C10040260CC00074
:1099C000000000000C30200000000000000000003B
:1099D0000000000000000000000000000000000087
:1099E0000000000000000000000000000000000077
:1099F0000000000000000000000000000000000067
:109A00000000000000000000000000000000000056
:109A10008000000000000000000000C30000000003
:109A20000000000000000000000000000000000036
:109A30000000000000000000000000000000000026
:109A40000000000000000000000000000000000016
:109A50000000000000000000000000000000000006
:109A600000000000000000000000000000000000F6
:109A7000000C30200000000000000000000000008A
:109A800000000000000000000000000000000000D6
:109A900000000000000000000000000000000000C6
:109AA00000000000000000000000000000000000B6
:109AB0000000000000000000000000000A0000019B
:109AC000405A400000000000C300000000000000F9
:109AD0000000000000000000000000000000000086
